{
  "_format": "hh-sol-artifact-1",
  "contractName": "Destore",
  "sourceName": "contracts/Dstore.sol",
  "abi": [
    {
      "inputs": [],
      "stateMutability": "nonpayable",
      "type": "constructor"
    },
    {
      "anonymous": false,
      "inputs": [
        {
          "indexed": true,
          "internalType": "address",
          "name": "owner",
          "type": "address"
        },
        {
          "indexed": true,
          "internalType": "address",
          "name": "approved",
          "type": "address"
        },
        {
          "indexed": true,
          "internalType": "uint256",
          "name": "tokenId",
          "type": "uint256"
        }
      ],
      "name": "Approval",
      "type": "event"
    },
    {
      "anonymous": false,
      "inputs": [
        {
          "indexed": true,
          "internalType": "address",
          "name": "owner",
          "type": "address"
        },
        {
          "indexed": true,
          "internalType": "address",
          "name": "operator",
          "type": "address"
        },
        {
          "indexed": false,
          "internalType": "bool",
          "name": "approved",
          "type": "bool"
        }
      ],
      "name": "ApprovalForAll",
      "type": "event"
    },
    {
      "anonymous": false,
      "inputs": [
        {
          "indexed": true,
          "internalType": "uint256",
          "name": "fileId",
          "type": "uint256"
        },
        {
          "indexed": false,
          "internalType": "uint256",
          "name": "fileCount",
          "type": "uint256"
        },
        {
          "indexed": false,
          "internalType": "string",
          "name": "fileHash",
          "type": "string"
        },
        {
          "indexed": false,
          "internalType": "uint256",
          "name": "fileSize",
          "type": "uint256"
        },
        {
          "indexed": false,
          "internalType": "string",
          "name": "fileType",
          "type": "string"
        },
        {
          "indexed": false,
          "internalType": "string",
          "name": "fileName",
          "type": "string"
        },
        {
          "indexed": false,
          "internalType": "uint256",
          "name": "folderId",
          "type": "uint256"
        },
        {
          "indexed": false,
          "internalType": "string",
          "name": "fileDescription",
          "type": "string"
        },
        {
          "indexed": false,
          "internalType": "uint256",
          "name": "uploadTime",
          "type": "uint256"
        },
        {
          "indexed": false,
          "internalType": "address",
          "name": "sender",
          "type": "address"
        }
      ],
      "name": "FileCreated",
      "type": "event"
    },
    {
      "anonymous": false,
      "inputs": [
        {
          "indexed": true,
          "internalType": "uint256",
          "name": "_id",
          "type": "uint256"
        },
        {
          "indexed": false,
          "internalType": "string",
          "name": "foldername",
          "type": "string"
        }
      ],
      "name": "FolderCreated",
      "type": "event"
    },
    {
      "anonymous": false,
      "inputs": [
        {
          "indexed": true,
          "internalType": "uint256",
          "name": "tokenId",
          "type": "uint256"
        },
        {
          "indexed": false,
          "internalType": "address",
          "name": "seller",
          "type": "address"
        },
        {
          "indexed": false,
          "internalType": "address",
          "name": "owner",
          "type": "address"
        },
        {
          "indexed": false,
          "internalType": "uint256",
          "name": "price",
          "type": "uint256"
        },
        {
          "indexed": false,
          "internalType": "bool",
          "name": "sold",
          "type": "bool"
        },
        {
          "indexed": false,
          "internalType": "string",
          "name": "name",
          "type": "string"
        },
        {
          "indexed": false,
          "internalType": "string",
          "name": "description",
          "type": "string"
        },
        {
          "indexed": false,
          "internalType": "string",
          "name": "image",
          "type": "string"
        }
      ],
      "name": "MarketItemCreated",
      "type": "event"
    },
    {
      "anonymous": false,
      "inputs": [
        {
          "indexed": true,
          "internalType": "address",
          "name": "from",
          "type": "address"
        },
        {
          "indexed": true,
          "internalType": "address",
          "name": "to",
          "type": "address"
        },
        {
          "indexed": true,
          "internalType": "uint256",
          "name": "tokenId",
          "type": "uint256"
        }
      ],
      "name": "Transfer",
      "type": "event"
    },
    {
      "anonymous": false,
      "inputs": [
        {
          "indexed": false,
          "internalType": "uint256",
          "name": "id",
          "type": "uint256"
        },
        {
          "indexed": false,
          "internalType": "address payable",
          "name": "_address",
          "type": "address"
        },
        {
          "indexed": false,
          "internalType": "string",
          "name": "image",
          "type": "string"
        },
        {
          "indexed": false,
          "internalType": "string",
          "name": "profile",
          "type": "string"
        },
        {
          "indexed": false,
          "internalType": "uint256",
          "name": "balance",
          "type": "uint256"
        }
      ],
      "name": "UserCreated",
      "type": "event"
    },
    {
      "inputs": [
        {
          "internalType": "uint256",
          "name": "_folderId",
          "type": "uint256"
        },
        {
          "internalType": "string",
          "name": "_fileHash",
          "type": "string"
        },
        {
          "internalType": "uint256",
          "name": "_fileSize",
          "type": "uint256"
        },
        {
          "internalType": "string",
          "name": "_fileType",
          "type": "string"
        },
        {
          "internalType": "string",
          "name": "_fileName",
          "type": "string"
        },
        {
          "internalType": "string",
          "name": "_fileDescription",
          "type": "string"
        }
      ],
      "name": "addFiles",
      "outputs": [],
      "stateMutability": "nonpayable",
      "type": "function"
    },
    {
      "inputs": [
        {
          "internalType": "string",
          "name": "_platformName",
          "type": "string"
        },
        {
          "internalType": "string",
          "name": "token",
          "type": "string"
        },
        {
          "internalType": "string",
          "name": "_projectid",
          "type": "string"
        },
        {
          "internalType": "string",
          "name": "_projectsecret",
          "type": "string"
        }
      ],
      "name": "addPlatform",
      "outputs": [],
      "stateMutability": "nonpayable",
      "type": "function"
    },
    {
      "inputs": [
        {
          "internalType": "address",
          "name": "to",
          "type": "address"
        },
        {
          "internalType": "uint256",
          "name": "tokenId",
          "type": "uint256"
        }
      ],
      "name": "approve",
      "outputs": [],
      "stateMutability": "nonpayable",
      "type": "function"
    },
    {
      "inputs": [
        {
          "internalType": "address",
          "name": "owner",
          "type": "address"
        }
      ],
      "name": "balanceOf",
      "outputs": [
        {
          "internalType": "uint256",
          "name": "",
          "type": "uint256"
        }
      ],
      "stateMutability": "view",
      "type": "function"
    },
    {
      "inputs": [
        {
          "internalType": "string",
          "name": "_foldername",
          "type": "string"
        },
        {
          "internalType": "uint256",
          "name": "_platformId",
          "type": "uint256"
        }
      ],
      "name": "createFolder",
      "outputs": [],
      "stateMutability": "nonpayable",
      "type": "function"
    },
    {
      "inputs": [
        {
          "internalType": "uint256",
          "name": "tokenId",
          "type": "uint256"
        }
      ],
      "name": "createMarketSale",
      "outputs": [],
      "stateMutability": "payable",
      "type": "function"
    },
    {
      "inputs": [
        {
          "internalType": "string",
          "name": "_image",
          "type": "string"
        },
        {
          "internalType": "string",
          "name": "_profile",
          "type": "string"
        }
      ],
      "name": "createProfile",
      "outputs": [],
      "stateMutability": "nonpayable",
      "type": "function"
    },
    {
      "inputs": [
        {
          "internalType": "string",
          "name": "tokenURI",
          "type": "string"
        },
        {
          "internalType": "uint256",
          "name": "price",
          "type": "uint256"
        },
        {
          "internalType": "string",
          "name": "_name",
          "type": "string"
        },
        {
          "internalType": "string",
          "name": "_description",
          "type": "string"
        },
        {
          "internalType": "string",
          "name": "_image",
          "type": "string"
        }
      ],
      "name": "createToken",
      "outputs": [
        {
          "internalType": "uint256",
          "name": "",
          "type": "uint256"
        }
      ],
      "stateMutability": "payable",
      "type": "function"
    },
    {
      "inputs": [],
      "name": "fetchAllUsers",
      "outputs": [
        {
          "components": [
            {
              "internalType": "uint256",
              "name": "id",
              "type": "uint256"
            },
            {
              "internalType": "address payable",
              "name": "_address",
              "type": "address"
            },
            {
              "internalType": "string",
              "name": "image",
              "type": "string"
            },
            {
              "internalType": "string",
              "name": "profile",
              "type": "string"
            },
            {
              "internalType": "uint256",
              "name": "balance",
              "type": "uint256"
            }
          ],
          "internalType": "struct Destore.User[]",
          "name": "",
          "type": "tuple[]"
        }
      ],
      "stateMutability": "view",
      "type": "function"
    },
    {
      "inputs": [],
      "name": "fetchItemsListed",
      "outputs": [
        {
          "components": [
            {
              "internalType": "uint256",
              "name": "tokenId",
              "type": "uint256"
            },
            {
              "internalType": "address payable",
              "name": "seller",
              "type": "address"
            },
            {
              "internalType": "address payable",
              "name": "owner",
              "type": "address"
            },
            {
              "internalType": "uint256",
              "name": "price",
              "type": "uint256"
            },
            {
              "internalType": "bool",
              "name": "sold",
              "type": "bool"
            },
            {
              "internalType": "string",
              "name": "name",
              "type": "string"
            },
            {
              "internalType": "string",
              "name": "description",
              "type": "string"
            },
            {
              "internalType": "string",
              "name": "image",
              "type": "string"
            }
          ],
          "internalType": "struct Destore.MarketItem[]",
          "name": "",
          "type": "tuple[]"
        }
      ],
      "stateMutability": "view",
      "type": "function"
    },
    {
      "inputs": [],
      "name": "fetchMarketItems",
      "outputs": [
        {
          "components": [
            {
              "internalType": "uint256",
              "name": "tokenId",
              "type": "uint256"
            },
            {
              "internalType": "address payable",
              "name": "seller",
              "type": "address"
            },
            {
              "internalType": "address payable",
              "name": "owner",
              "type": "address"
            },
            {
              "internalType": "uint256",
              "name": "price",
              "type": "uint256"
            },
            {
              "internalType": "bool",
              "name": "sold",
              "type": "bool"
            },
            {
              "internalType": "string",
              "name": "name",
              "type": "string"
            },
            {
              "internalType": "string",
              "name": "description",
              "type": "string"
            },
            {
              "internalType": "string",
              "name": "image",
              "type": "string"
            }
          ],
          "internalType": "struct Destore.MarketItem[]",
          "name": "",
          "type": "tuple[]"
        }
      ],
      "stateMutability": "view",
      "type": "function"
    },
    {
      "inputs": [],
      "name": "fetchMyNFTs",
      "outputs": [
        {
          "components": [
            {
              "internalType": "uint256",
              "name": "tokenId",
              "type": "uint256"
            },
            {
              "internalType": "address payable",
              "name": "seller",
              "type": "address"
            },
            {
              "internalType": "address payable",
              "name": "owner",
              "type": "address"
            },
            {
              "internalType": "uint256",
              "name": "price",
              "type": "uint256"
            },
            {
              "internalType": "bool",
              "name": "sold",
              "type": "bool"
            },
            {
              "internalType": "string",
              "name": "name",
              "type": "string"
            },
            {
              "internalType": "string",
              "name": "description",
              "type": "string"
            },
            {
              "internalType": "string",
              "name": "image",
              "type": "string"
            }
          ],
          "internalType": "struct Destore.MarketItem[]",
          "name": "",
          "type": "tuple[]"
        }
      ],
      "stateMutability": "view",
      "type": "function"
    },
    {
      "inputs": [
        {
          "internalType": "address",
          "name": "",
          "type": "address"
        },
        {
          "internalType": "uint256",
          "name": "",
          "type": "uint256"
        }
      ],
      "name": "folder",
      "outputs": [
        {
          "internalType": "uint256",
          "name": "platformId",
          "type": "uint256"
        },
        {
          "internalType": "uint256",
          "name": "folderCount",
          "type": "uint256"
        },
        {
          "internalType": "uint256",
          "name": "id",
          "type": "uint256"
        },
        {
          "internalType": "string",
          "name": "folderName",
          "type": "string"
        },
        {
          "components": [
            {
              "internalType": "uint256",
              "name": "fileId",
              "type": "uint256"
            },
            {
              "internalType": "uint256",
              "name": "fileCount",
              "type": "uint256"
            },
            {
              "internalType": "string",
              "name": "fileHash",
              "type": "string"
            },
            {
              "internalType": "uint256",
              "name": "fileSize",
              "type": "uint256"
            },
            {
              "internalType": "string",
              "name": "fileType",
              "type": "string"
            },
            {
              "internalType": "string",
              "name": "fileName",
              "type": "string"
            },
            {
              "internalType": "uint256",
              "name": "folderId",
              "type": "uint256"
            },
            {
              "internalType": "string",
              "name": "fileDescription",
              "type": "string"
            },
            {
              "internalType": "uint256",
              "name": "uploadTime",
              "type": "uint256"
            },
            {
              "internalType": "address",
              "name": "sender",
              "type": "address"
            }
          ],
          "internalType": "struct Destore.File",
          "name": "files",
          "type": "tuple"
        },
        {
          "internalType": "address",
          "name": "owner",
          "type": "address"
        }
      ],
      "stateMutability": "view",
      "type": "function"
    },
    {
      "inputs": [
        {
          "internalType": "uint256",
          "name": "tokenId",
          "type": "uint256"
        }
      ],
      "name": "getApproved",
      "outputs": [
        {
          "internalType": "address",
          "name": "",
          "type": "address"
        }
      ],
      "stateMutability": "view",
      "type": "function"
    },
    {
      "inputs": [
        {
          "internalType": "uint256",
          "name": "_folderId",
          "type": "uint256"
        }
      ],
      "name": "getFiles",
      "outputs": [
        {
          "components": [
            {
              "internalType": "uint256",
              "name": "fileId",
              "type": "uint256"
            },
            {
              "internalType": "uint256",
              "name": "fileCount",
              "type": "uint256"
            },
            {
              "internalType": "string",
              "name": "fileHash",
              "type": "string"
            },
            {
              "internalType": "uint256",
              "name": "fileSize",
              "type": "uint256"
            },
            {
              "internalType": "string",
              "name": "fileType",
              "type": "string"
            },
            {
              "internalType": "string",
              "name": "fileName",
              "type": "string"
            },
            {
              "internalType": "uint256",
              "name": "folderId",
              "type": "uint256"
            },
            {
              "internalType": "string",
              "name": "fileDescription",
              "type": "string"
            },
            {
              "internalType": "uint256",
              "name": "uploadTime",
              "type": "uint256"
            },
            {
              "internalType": "address",
              "name": "sender",
              "type": "address"
            }
          ],
          "internalType": "struct Destore.File[]",
          "name": "",
          "type": "tuple[]"
        }
      ],
      "stateMutability": "view",
      "type": "function"
    },
    {
      "inputs": [
        {
          "internalType": "uint256",
          "name": "_platformId",
          "type": "uint256"
        }
      ],
      "name": "getFolders",
      "outputs": [
        {
          "components": [
            {
              "internalType": "uint256",
              "name": "platformId",
              "type": "uint256"
            },
            {
              "internalType": "uint256",
              "name": "folderCount",
              "type": "uint256"
            },
            {
              "internalType": "uint256",
              "name": "id",
              "type": "uint256"
            },
            {
              "internalType": "string",
              "name": "folderName",
              "type": "string"
            },
            {
              "components": [
                {
                  "internalType": "uint256",
                  "name": "fileId",
                  "type": "uint256"
                },
                {
                  "internalType": "uint256",
                  "name": "fileCount",
                  "type": "uint256"
                },
                {
                  "internalType": "string",
                  "name": "fileHash",
                  "type": "string"
                },
                {
                  "internalType": "uint256",
                  "name": "fileSize",
                  "type": "uint256"
                },
                {
                  "internalType": "string",
                  "name": "fileType",
                  "type": "string"
                },
                {
                  "internalType": "string",
                  "name": "fileName",
                  "type": "string"
                },
                {
                  "internalType": "uint256",
                  "name": "folderId",
                  "type": "uint256"
                },
                {
                  "internalType": "string",
                  "name": "fileDescription",
                  "type": "string"
                },
                {
                  "internalType": "uint256",
                  "name": "uploadTime",
                  "type": "uint256"
                },
                {
                  "internalType": "address",
                  "name": "sender",
                  "type": "address"
                }
              ],
              "internalType": "struct Destore.File",
              "name": "files",
              "type": "tuple"
            },
            {
              "internalType": "address",
              "name": "owner",
              "type": "address"
            }
          ],
          "internalType": "struct Destore.Folder[]",
          "name": "",
          "type": "tuple[]"
        }
      ],
      "stateMutability": "view",
      "type": "function"
    },
    {
      "inputs": [],
      "name": "getListingPrice",
      "outputs": [
        {
          "internalType": "uint256",
          "name": "",
          "type": "uint256"
        }
      ],
      "stateMutability": "view",
      "type": "function"
    },
    {
      "inputs": [],
      "name": "getPlatforms",
      "outputs": [
        {
          "components": [
            {
              "internalType": "string",
              "name": "platformName",
              "type": "string"
            },
            {
              "internalType": "string",
              "name": "token",
              "type": "string"
            },
            {
              "internalType": "uint256",
              "name": "platform_id",
              "type": "uint256"
            },
            {
              "internalType": "string",
              "name": "platformid",
              "type": "string"
            },
            {
              "internalType": "string",
              "name": "platformsecret",
              "type": "string"
            },
            {
              "internalType": "uint256",
              "name": "platformCount",
              "type": "uint256"
            },
            {
              "internalType": "address",
              "name": "user",
              "type": "address"
            }
          ],
          "internalType": "struct Destore.Platform[]",
          "name": "",
          "type": "tuple[]"
        }
      ],
      "stateMutability": "view",
      "type": "function"
    },
    {
      "inputs": [],
      "name": "getSingleUser",
      "outputs": [
        {
          "components": [
            {
              "internalType": "uint256",
              "name": "id",
              "type": "uint256"
            },
            {
              "internalType": "address payable",
              "name": "_address",
              "type": "address"
            },
            {
              "internalType": "string",
              "name": "image",
              "type": "string"
            },
            {
              "internalType": "string",
              "name": "profile",
              "type": "string"
            },
            {
              "internalType": "uint256",
              "name": "balance",
              "type": "uint256"
            }
          ],
          "internalType": "struct Destore.User",
          "name": "",
          "type": "tuple"
        }
      ],
      "stateMutability": "view",
      "type": "function"
    },
    {
      "inputs": [
        {
          "internalType": "address",
          "name": "owner",
          "type": "address"
        },
        {
          "internalType": "address",
          "name": "operator",
          "type": "address"
        }
      ],
      "name": "isApprovedForAll",
      "outputs": [
        {
          "internalType": "bool",
          "name": "",
          "type": "bool"
        }
      ],
      "stateMutability": "view",
      "type": "function"
    },
    {
      "inputs": [],
      "name": "isRegistered",
      "outputs": [
        {
          "internalType": "bool",
          "name": "",
          "type": "bool"
        }
      ],
      "stateMutability": "view",
      "type": "function"
    },
    {
      "inputs": [],
      "name": "name",
      "outputs": [
        {
          "internalType": "string",
          "name": "",
          "type": "string"
        }
      ],
      "stateMutability": "view",
      "type": "function"
    },
    {
      "inputs": [
        {
          "internalType": "uint256",
          "name": "tokenId",
          "type": "uint256"
        }
      ],
      "name": "ownerOf",
      "outputs": [
        {
          "internalType": "address",
          "name": "",
          "type": "address"
        }
      ],
      "stateMutability": "view",
      "type": "function"
    },
    {
      "inputs": [
        {
          "internalType": "address",
          "name": "",
          "type": "address"
        },
        {
          "internalType": "uint256",
          "name": "",
          "type": "uint256"
        }
      ],
      "name": "platform",
      "outputs": [
        {
          "internalType": "string",
          "name": "platformName",
          "type": "string"
        },
        {
          "internalType": "string",
          "name": "token",
          "type": "string"
        },
        {
          "internalType": "uint256",
          "name": "platform_id",
          "type": "uint256"
        },
        {
          "internalType": "string",
          "name": "platformid",
          "type": "string"
        },
        {
          "internalType": "string",
          "name": "platformsecret",
          "type": "string"
        },
        {
          "internalType": "uint256",
          "name": "platformCount",
          "type": "uint256"
        },
        {
          "internalType": "address",
          "name": "user",
          "type": "address"
        }
      ],
      "stateMutability": "view",
      "type": "function"
    },
    {
      "inputs": [
        {
          "internalType": "address",
          "name": "",
          "type": "address"
        }
      ],
      "name": "registeredUsers",
      "outputs": [
        {
          "internalType": "bool",
          "name": "",
          "type": "bool"
        }
      ],
      "stateMutability": "view",
      "type": "function"
    },
    {
      "inputs": [
        {
          "internalType": "uint256",
          "name": "tokenId",
          "type": "uint256"
        },
        {
          "internalType": "uint256",
          "name": "price",
          "type": "uint256"
        }
      ],
      "name": "resellToken",
      "outputs": [],
      "stateMutability": "payable",
      "type": "function"
    },
    {
      "inputs": [
        {
          "internalType": "address",
          "name": "from",
          "type": "address"
        },
        {
          "internalType": "address",
          "name": "to",
          "type": "address"
        },
        {
          "internalType": "uint256",
          "name": "tokenId",
          "type": "uint256"
        }
      ],
      "name": "safeTransferFrom",
      "outputs": [],
      "stateMutability": "nonpayable",
      "type": "function"
    },
    {
      "inputs": [
        {
          "internalType": "address",
          "name": "from",
          "type": "address"
        },
        {
          "internalType": "address",
          "name": "to",
          "type": "address"
        },
        {
          "internalType": "uint256",
          "name": "tokenId",
          "type": "uint256"
        },
        {
          "internalType": "bytes",
          "name": "data",
          "type": "bytes"
        }
      ],
      "name": "safeTransferFrom",
      "outputs": [],
      "stateMutability": "nonpayable",
      "type": "function"
    },
    {
      "inputs": [
        {
          "internalType": "address",
          "name": "operator",
          "type": "address"
        },
        {
          "internalType": "bool",
          "name": "approved",
          "type": "bool"
        }
      ],
      "name": "setApprovalForAll",
      "outputs": [],
      "stateMutability": "nonpayable",
      "type": "function"
    },
    {
      "inputs": [
        {
          "internalType": "bytes4",
          "name": "interfaceId",
          "type": "bytes4"
        }
      ],
      "name": "supportsInterface",
      "outputs": [
        {
          "internalType": "bool",
          "name": "",
          "type": "bool"
        }
      ],
      "stateMutability": "view",
      "type": "function"
    },
    {
      "inputs": [],
      "name": "symbol",
      "outputs": [
        {
          "internalType": "string",
          "name": "",
          "type": "string"
        }
      ],
      "stateMutability": "view",
      "type": "function"
    },
    {
      "inputs": [
        {
          "internalType": "uint256",
          "name": "id",
          "type": "uint256"
        }
      ],
      "name": "tipUser",
      "outputs": [],
      "stateMutability": "payable",
      "type": "function"
    },
    {
      "inputs": [
        {
          "internalType": "uint256",
          "name": "tokenId",
          "type": "uint256"
        }
      ],
      "name": "tokenURI",
      "outputs": [
        {
          "internalType": "string",
          "name": "",
          "type": "string"
        }
      ],
      "stateMutability": "view",
      "type": "function"
    },
    {
      "inputs": [
        {
          "internalType": "address",
          "name": "from",
          "type": "address"
        },
        {
          "internalType": "address",
          "name": "to",
          "type": "address"
        },
        {
          "internalType": "uint256",
          "name": "tokenId",
          "type": "uint256"
        }
      ],
      "name": "transferFrom",
      "outputs": [],
      "stateMutability": "nonpayable",
      "type": "function"
    },
    {
      "inputs": [
        {
          "internalType": "uint256",
          "name": "_listingPrice",
          "type": "uint256"
        }
      ],
      "name": "updateListingPrice",
      "outputs": [],
      "stateMutability": "payable",
      "type": "function"
    },
    {
      "inputs": [],
      "name": "userCount",
      "outputs": [
        {
          "internalType": "uint256",
          "name": "",
          "type": "uint256"
        }
      ],
      "stateMutability": "view",
      "type": "function"
    }
  ],
  "bytecode": "0x60806040526000600a556658d15e17628000600b553480156200002157600080fd5b50604080518082018252601081526f4d657461766572736520546f6b656e7360801b6020808301918252835180850190945260048452631351551560e21b9084015281519192916200007691600091620000a7565b5080516200008c906001906020840190620000a7565b5050600780546001600160a01b03191633179055506200018a565b828054620000b5906200014d565b90600052602060002090601f016020900481019282620000d9576000855562000124565b82601f10620000f457805160ff191683800117855562000124565b8280016001018555821562000124579182015b828111156200012457825182559160200191906001019062000107565b506200013292915062000136565b5090565b5b8082111562000132576000815560010162000137565b600181811c908216806200016257607f821691505b602082108114156200018457634e487b7160e01b600052602260045260246000fd5b50919050565b61533c806200019a6000396000f3fe60806040526004361061019f5760003560e01c806301ffc9a7146101a457806306fdde03146101d957806307973ccf146101fb578063081812fc1461021f578063095ea7b3146102575780630e50cee5146102795780630f08efe0146102a957806312506f4d146102cb57806312e85585146102f85780631fbe552e1461030d578063202e37401461032f578063223668441461034457806323b872dd1461035957806342842e0e1461037957806345f8fa801461039957806356a1dc7e146103ae5780635b473724146103ce5780636352211e146103ee5780636aa444871461040e57806370a08231146104405780638865ba66146104605780639537a1a21461048257806395d89b41146104a25780639e0d2da8146104b7578063a22cb465146104ca578063ae677aa3146104ea578063b829b148146104fd578063b88d4fde14610530578063ba1feb8a14610550578063be9af53614610570578063c337431514610583578063c87b56dd146105a5578063d1d8a068146105c5578063e219fc75146105d8578063e985e9c5146105eb578063f179573f1461060b575b600080fd5b3480156101b057600080fd5b506101c46101bf3660046143a0565b610638565b60405190151581526020015b60405180910390f35b3480156101e557600080fd5b506101ee61068a565b6040516101d09190614415565b34801561020757600080fd5b50610211600a5481565b6040519081526020016101d0565b34801561022b57600080fd5b5061023f61023a366004614428565b61071c565b6040516001600160a01b0390911681526020016101d0565b34801561026357600080fd5b5061027761027236600461446a565b610743565b005b34801561028557600080fd5b506101c4610294366004614494565b600f6020526000908152604090205460ff1681565b3480156102b557600080fd5b506102be61085e565b6040516101d091906144af565b3480156102d757600080fd5b506102eb6102e6366004614428565b610b93565b6040516101d09190614653565b34801561030457600080fd5b50600b54610211565b34801561031957600080fd5b50610322610f38565b6040516101d091906146b5565b34801561033b57600080fd5b506102be6112f1565b34801561035057600080fd5b506101c4611664565b34801561036557600080fd5b5061027761037436600461478b565b61168d565b34801561038557600080fd5b5061027761039436600461478b565b6116be565b3480156103a557600080fd5b506102be6116d9565b3480156103ba57600080fd5b506102776103c9366004614872565b611a4c565b3480156103da57600080fd5b506102776103e936600461491e565b611bf4565b3480156103fa57600080fd5b5061023f610409366004614428565b611e04565b34801561041a57600080fd5b5061042e61042936600461446a565b611e39565b6040516101d096959493929190614962565b34801561044c57600080fd5b5061021161045b366004614494565b6121a9565b34801561046c57600080fd5b5061047561222f565b6040516101d09190614a16565b34801561048e57600080fd5b5061027761049d366004614a29565b6123a5565b3480156104ae57600080fd5b506101ee61264c565b6102116104c5366004614ae7565b61265b565b3480156104d657600080fd5b506102776104e5366004614b9d565b6126a3565b6102776104f8366004614428565b6126b2565b34801561050957600080fd5b5061051d61051836600461446a565b61272a565b6040516101d09796959493929190614bd9565b34801561053c57600080fd5b5061027761054b366004614c51565b612999565b34801561055c57600080fd5b5061027761056b366004614cc0565b6129d1565b61027761057e366004614428565b612c1c565b34801561058f57600080fd5b50610598612d81565b6040516101d09190614d23565b3480156105b157600080fd5b506101ee6105c0366004614428565b612fa3565b6102776105d3366004614428565b6130b4565b6102776105e6366004614d78565b61319d565b3480156105f757600080fd5b506101c4610606366004614d9a565b613295565b34801561061757600080fd5b5061062b610626366004614428565b6132c3565b6040516101d09190614dcd565b60006001600160e01b031982166380ac58cd60e01b148061066957506001600160e01b03198216635b5e139f60e01b145b8061068457506301ffc9a760e01b6001600160e01b03198316145b92915050565b60606000805461069990614e7a565b80601f01602080910402602001604051908101604052809291908181526020018280546106c590614e7a565b80156107125780601f106106e757610100808354040283529160200191610712565b820191906000526020600020905b8154815290600101906020018083116106f557829003601f168201915b5050505050905090565b60006107278261377b565b506000908152600460205260409020546001600160a01b031690565b600061074e82611e04565b9050806001600160a01b0316836001600160a01b031614156107c15760405162461bcd60e51b815260206004820152602160248201527f4552433732313a20617070726f76616c20746f2063757272656e74206f776e656044820152603960f91b60648201526084015b60405180910390fd5b336001600160a01b03821614806107dd57506107dd8133613295565b61084f5760405162461bcd60e51b815260206004820152603e60248201527f4552433732313a20617070726f76652063616c6c6572206973206e6f7420746f60448201527f6b656e206f776e6572206e6f7220617070726f76656420666f7220616c6c000060648201526084016107b8565b61085983836137a3565b505050565b6060600061086b60085490565b9050600061087860095490565b6008546108859190614ecb565b9050600080826001600160401b038111156108a2576108a26147c7565b6040519080825280602002602001820160405280156108db57816020015b6108c861414d565b8152602001906001900390816108c05790505b50905060005b84811015610b8a5730600c60006108f9846001614ee2565b81526020810191909152604001600020600201546001600160a01b03161415610b78576000610929826001614ee2565b6000818152600c60209081526040918290208251610100810184528154815260018201546001600160a01b039081169382019390935260028201549092169282019290925260038201546060820152600482015460ff161515608082015260058201805493945091929091839160a0840191906109a590614e7a565b80601f01602080910402602001604051908101604052809291908181526020018280546109d190614e7a565b8015610a1e5780601f106109f357610100808354040283529160200191610a1e565b820191906000526020600020905b815481529060010190602001808311610a0157829003601f168201915b50505050508152602001600682018054610a3790614e7a565b80601f0160208091040260200160405190810160405280929190818152602001828054610a6390614e7a565b8015610ab05780601f10610a8557610100808354040283529160200191610ab0565b820191906000526020600020905b815481529060010190602001808311610a9357829003601f168201915b50505050508152602001600782018054610ac990614e7a565b80601f0160208091040260200160405190810160405280929190818152602001828054610af590614e7a565b8015610b425780601f10610b1757610100808354040283529160200191610b42565b820191906000526020600020905b815481529060010190602001808311610b2557829003601f168201915b505050505081525050848681518110610b5d57610b5d614efa565b6020908102919091010152610b73600186614ee2565b945050505b80610b8281614f10565b9150506108e1565b50949350505050565b600081815260136020908152604080832033845260118352818420858552835281842054845290915281206001015460609180826001600160401b03811115610bde57610bde6147c7565b604051908082528060200260200182016040528015610c1757816020015b610c046141a6565b815260200190600190039081610bfc5790505b50905060005b83811015610b8a576000610c32826001614ee2565b90506000601360008981526020019081526020016000206000838152602001908152602001600020905080604051806101400160405290816000820154815260200160018201548152602001600282018054610c8d90614e7a565b80601f0160208091040260200160405190810160405280929190818152602001828054610cb990614e7a565b8015610d065780601f10610cdb57610100808354040283529160200191610d06565b820191906000526020600020905b815481529060010190602001808311610ce957829003601f168201915b5050505050815260200160038201548152602001600482018054610d2990614e7a565b80601f0160208091040260200160405190810160405280929190818152602001828054610d5590614e7a565b8015610da25780601f10610d7757610100808354040283529160200191610da2565b820191906000526020600020905b815481529060010190602001808311610d8557829003601f168201915b50505050508152602001600582018054610dbb90614e7a565b80601f0160208091040260200160405190810160405280929190818152602001828054610de790614e7a565b8015610e345780601f10610e0957610100808354040283529160200191610e34565b820191906000526020600020905b815481529060010190602001808311610e1757829003601f168201915b5050505050815260200160068201548152602001600782018054610e5790614e7a565b80601f0160208091040260200160405190810160405280929190818152602001828054610e8390614e7a565b8015610ed05780601f10610ea557610100808354040283529160200191610ed0565b820191906000526020600020905b815481529060010190602001808311610eb357829003601f168201915b5050509183525050600882015460208201526009909101546001600160a01b03166040909101528451859087908110610f0b57610f0b614efa565b6020908102919091010152610f21600186614ee2565b945050508080610f3090614f10565b915050610c1d565b336000908152600d602090815260408083206012835281842054845290915281206005015460609180826001600160401b03811115610f7957610f796147c7565b604051908082528060200260200182016040528015610ff357816020015b610fe06040518060e0016040528060608152602001606081526020016000815260200160608152602001606081526020016000815260200160006001600160a01b031681525090565b815260200190600190039081610f975790505b50905060005b838110156112e957600061100e826001614ee2565b336000908152600d6020908152604080832084845290915290819020815160e0810190925280549293509182908290829061104890614e7a565b80601f016020809104026020016040519081016040528092919081815260200182805461107490614e7a565b80156110c15780601f10611096576101008083540402835291602001916110c1565b820191906000526020600020905b8154815290600101906020018083116110a457829003601f168201915b505050505081526020016001820180546110da90614e7a565b80601f016020809104026020016040519081016040528092919081815260200182805461110690614e7a565b80156111535780601f1061112857610100808354040283529160200191611153565b820191906000526020600020905b81548152906001019060200180831161113657829003601f168201915b505050505081526020016002820154815260200160038201805461117690614e7a565b80601f01602080910402602001604051908101604052809291908181526020018280546111a290614e7a565b80156111ef5780601f106111c4576101008083540402835291602001916111ef565b820191906000526020600020905b8154815290600101906020018083116111d257829003601f168201915b5050505050815260200160048201805461120890614e7a565b80601f016020809104026020016040519081016040528092919081815260200182805461123490614e7a565b80156112815780601f1061125657610100808354040283529160200191611281565b820191906000526020600020905b81548152906001019060200180831161126457829003601f168201915b5050509183525050600582015460208201526006909101546001600160a01b031660409091015284518590879081106112bc576112bc614efa565b60209081029190910101526112d2600186614ee2565b9450505080806112e190614f10565b915050610ff9565b509392505050565b606060006112fe60085490565b905060008060005b838110156113615733600c600061131e846001614ee2565b81526020810191909152604001600020600201546001600160a01b0316141561134f5761134c600184614ee2565b92505b8061135981614f10565b915050611306565b506000826001600160401b0381111561137c5761137c6147c7565b6040519080825280602002602001820160405280156113b557816020015b6113a261414d565b81526020019060019003908161139a5790505b50905060005b84811015610b8a5733600c60006113d3846001614ee2565b81526020810191909152604001600020600201546001600160a01b03161415611652576000611403826001614ee2565b6000818152600c60209081526040918290208251610100810184528154815260018201546001600160a01b039081169382019390935260028201549092169282019290925260038201546060820152600482015460ff161515608082015260058201805493945091929091839160a08401919061147f90614e7a565b80601f01602080910402602001604051908101604052809291908181526020018280546114ab90614e7a565b80156114f85780601f106114cd576101008083540402835291602001916114f8565b820191906000526020600020905b8154815290600101906020018083116114db57829003601f168201915b5050505050815260200160068201805461151190614e7a565b80601f016020809104026020016040519081016040528092919081815260200182805461153d90614e7a565b801561158a5780601f1061155f5761010080835404028352916020019161158a565b820191906000526020600020905b81548152906001019060200180831161156d57829003601f168201915b505050505081526020016007820180546115a390614e7a565b80601f01602080910402602001604051908101604052809291908181526020018280546115cf90614e7a565b801561161c5780601f106115f15761010080835404028352916020019161161c565b820191906000526020600020905b8154815290600101906020018083116115ff57829003601f168201915b50505050508152505084868151811061163757611637614efa565b602090810291909101015261164d600186614ee2565b945050505b8061165c81614f10565b9150506113bb565b336000908152600f602052604081205460ff161515600114156116875750600190565b50600090565b6116973382613811565b6116b35760405162461bcd60e51b81526004016107b890614f2b565b61085983838361386f565b61085983838360405180602001604052806000815250612999565b606060006116e660085490565b905060008060005b838110156117495733600c6000611706846001614ee2565b81526020810191909152604001600020600101546001600160a01b0316141561173757611734600184614ee2565b92505b8061174181614f10565b9150506116ee565b506000826001600160401b03811115611764576117646147c7565b60405190808252806020026020018201604052801561179d57816020015b61178a61414d565b8152602001906001900390816117825790505b50905060005b84811015610b8a5733600c60006117bb846001614ee2565b81526020810191909152604001600020600101546001600160a01b03161415611a3a5760006117eb826001614ee2565b6000818152600c60209081526040918290208251610100810184528154815260018201546001600160a01b039081169382019390935260028201549092169282019290925260038201546060820152600482015460ff161515608082015260058201805493945091929091839160a08401919061186790614e7a565b80601f016020809104026020016040519081016040528092919081815260200182805461189390614e7a565b80156118e05780601f106118b5576101008083540402835291602001916118e0565b820191906000526020600020905b8154815290600101906020018083116118c357829003601f168201915b505050505081526020016006820180546118f990614e7a565b80601f016020809104026020016040519081016040528092919081815260200182805461192590614e7a565b80156119725780601f1061194757610100808354040283529160200191611972565b820191906000526020600020905b81548152906001019060200180831161195557829003601f168201915b5050505050815260200160078201805461198b90614e7a565b80601f01602080910402602001604051908101604052809291908181526020018280546119b790614e7a565b8015611a045780601f106119d957610100808354040283529160200191611a04565b820191906000526020600020905b8154815290600101906020018083116119e757829003601f168201915b505050505081525050848681518110611a1f57611a1f614efa565b6020908102919091010152611a35600186614ee2565b945050505b80611a4481614f10565b9150506117a3565b33600090815260126020526040902054611a67906001614ee2565b336000908152601260209081526040808320849055600d825280832093835292815291902085519091611a9e918391880190614202565b508351611ab49060018301906020870190614202565b50336000908152601260209081526040909120546002830181905560058301558351611ae891600384019190860190614202565b508151611afe9060048301906020850190614202565b506006810180546001600160a01b031916339081179091556000908152600d60209081526040808320601283528184205484529091529020815482919081908390611b4890614e7a565b611b53929190614286565b506001820181600101908054611b6890614e7a565b611b73929190614286565b50600282015481600201556003820181600301908054611b9290614e7a565b611b9d929190614286565b506004820181600401908054611bb290614e7a565b611bbd929190614286565b5060058281015490820155600691820154910180546001600160a01b0319166001600160a01b039092169190911790555050505050565b33600090815260106020526040902054611c0f906001614ee2565b336000818152601060208181526040808420869055600e82528084208685528252832093909252815260028201839055600182019290925583519091611c5c916003840191860190614202565b50818155600e80820180546001600160a01b03191633908117909155600090815260209182526040808220601084528183205483529092522082815560018083015490820155600280830154908201556003808301805484939283019190611cc390614e7a565b611cce929190614286565b50600482018160040160008201548160000155600182015481600101556002820181600201908054611cff90614e7a565b611d0a929190614286565b50600382015481600301556004820181600401908054611d2990614e7a565b611d34929190614286565b506005820181600501908054611d4990614e7a565b611d54929190614286565b50600682015481600601556007820181600701908054611d7390614e7a565b611d7e929190614286565b5060088281015490820155600991820154910180546001600160a01b03199081166001600160a01b0393841617909155600e93840154929093018054909316911617905560018101546040517f1ab1e3deaf766b73268be743e461b11f32921eb946d2315530de558762601aba90611df7908690614415565b60405180910390a2505050565b6000818152600260205260408120546001600160a01b0316806106845760405162461bcd60e51b81526004016107b890614f79565b600e60205281600052604060002060205280600052604060002060009150915050806000015490806001015490806002015490806003018054611e7b90614e7a565b80601f0160208091040260200160405190810160405280929190818152602001828054611ea790614e7a565b8015611ef45780601f10611ec957610100808354040283529160200191611ef4565b820191906000526020600020905b815481529060010190602001808311611ed757829003601f168201915b50505050509080600401604051806101400160405290816000820154815260200160018201548152602001600282018054611f2e90614e7a565b80601f0160208091040260200160405190810160405280929190818152602001828054611f5a90614e7a565b8015611fa75780601f10611f7c57610100808354040283529160200191611fa7565b820191906000526020600020905b815481529060010190602001808311611f8a57829003601f168201915b5050505050815260200160038201548152602001600482018054611fca90614e7a565b80601f0160208091040260200160405190810160405280929190818152602001828054611ff690614e7a565b80156120435780601f1061201857610100808354040283529160200191612043565b820191906000526020600020905b81548152906001019060200180831161202657829003601f168201915b5050505050815260200160058201805461205c90614e7a565b80601f016020809104026020016040519081016040528092919081815260200182805461208890614e7a565b80156120d55780601f106120aa576101008083540402835291602001916120d5565b820191906000526020600020905b8154815290600101906020018083116120b857829003601f168201915b50505050508152602001600682015481526020016007820180546120f890614e7a565b80601f016020809104026020016040519081016040528092919081815260200182805461212490614e7a565b80156121715780601f1061214657610100808354040283529160200191612171565b820191906000526020600020905b81548152906001019060200180831161215457829003601f168201915b5050509183525050600882015460208201526009909101546001600160a01b03908116604090920191909152600e9092015490911686565b60006001600160a01b0382166122135760405162461bcd60e51b815260206004820152602960248201527f4552433732313a2061646472657373207a65726f206973206e6f7420612076616044820152683634b21037bbb732b960b91b60648201526084016107b8565b506001600160a01b031660009081526003602052604090205490565b612237614301565b33600090815260156020908152604091829020825160a0810184528154815260018201546001600160a01b031692810192909252600281018054929391929184019161228290614e7a565b80601f01602080910402602001604051908101604052809291908181526020018280546122ae90614e7a565b80156122fb5780601f106122d0576101008083540402835291602001916122fb565b820191906000526020600020905b8154815290600101906020018083116122de57829003601f168201915b5050505050815260200160038201805461231490614e7a565b80601f016020809104026020016040519081016040528092919081815260200182805461234090614e7a565b801561238d5780601f106123625761010080835404028352916020019161238d565b820191906000526020600020905b81548152906001019060200180831161237057829003601f168201915b50505050508152602001600482015481525050905090565b60008551116123b357600080fd5b60008351116123c157600080fd5b60008251116123cf57600080fd5b600084116123dc57600080fd5b336000908152601160209081526040808320898452909152902054612402906001614ee2565b3360009081526011602090815260408083208a8452808352818420859055601383528184208585528352908320848155928a90528152600182019290925586519091612455916002840191890190614202565b506003810185905583516124729060048301906020870190614202565b5082516124889060058301906020860190614202565b506006810187905581516124a59060078301906020850190614202565b504260088201556009810180546001600160a01b031916339081179091556000888152601360209081526040808320938352601182528083208b84528252808320548352929052208154815560018083015490820155600280830180548493928301919061251290614e7a565b61251d929190614286565b5060038201548160030155600482018160040190805461253c90614e7a565b612547929190614286565b50600582018160050190805461255c90614e7a565b612567929190614286565b5060068201548160060155600782018160070190805461258690614e7a565b612591929190614286565b50600882015481600801556009820160009054906101000a90046001600160a01b03168160090160006101000a8154816001600160a01b0302191690836001600160a01b0316021790555090505080600001547f46255e5a47f8c7a10e17fb87e1d3d448ee6c4f8b4ee53f30d5263acdf2d8c9fd826001015483600201846003015485600401866005018d8860070189600801543360405161263b9998979695949392919061504b565b60405180910390a250505050505050565b60606001805461069990614e7a565b600061266b600880546001019055565b600061267660085490565b905061268233826139f9565b61268c8188613b19565b6126998187878787613ba4565b9695505050505050565b6126ae338383613d5f565b5050565b6007546001600160a01b031633146127255760405162461bcd60e51b815260206004820152603060248201527f4f6e6c79206d61726b6574706c616365206f776e65722063616e20757064617460448201526f32903634b9ba34b73390383934b1b29760811b60648201526084016107b8565b600b55565b600d60209081526000928352604080842090915290825290208054819061275090614e7a565b80601f016020809104026020016040519081016040528092919081815260200182805461277c90614e7a565b80156127c95780601f1061279e576101008083540402835291602001916127c9565b820191906000526020600020905b8154815290600101906020018083116127ac57829003601f168201915b5050505050908060010180546127de90614e7a565b80601f016020809104026020016040519081016040528092919081815260200182805461280a90614e7a565b80156128575780601f1061282c57610100808354040283529160200191612857565b820191906000526020600020905b81548152906001019060200180831161283a57829003601f168201915b50505050509080600201549080600301805461287290614e7a565b80601f016020809104026020016040519081016040528092919081815260200182805461289e90614e7a565b80156128eb5780601f106128c0576101008083540402835291602001916128eb565b820191906000526020600020905b8154815290600101906020018083116128ce57829003601f168201915b50505050509080600401805461290090614e7a565b80601f016020809104026020016040519081016040528092919081815260200182805461292c90614e7a565b80156129795780601f1061294e57610100808354040283529160200191612979565b820191906000526020600020905b81548152906001019060200180831161295c57829003601f168201915b5050505060058301546006909301549192916001600160a01b0316905087565b6129a33383613811565b6129bf5760405162461bcd60e51b81526004016107b890614f2b565b6129cb84848484613e2a565b50505050565b336000908152600f602052604090205460ff166126ae57600a80549060006129f883614f10565b9091555050600a5460008181526014602090815260408083203380855260158452919093209383556001830180546001600160a01b03191690911790558451919291612a4c91600285019190870190614202565b508251612a629060038401906020860190614202565b50600060048301819055338152600f60209081526040909120805460ff19166001179055600a5482558451612a9f91600284019190870190614202565b508251612ab59060038301906020860190614202565b5060018181018054336001600160a01b031991821681178355600090815260156020526040902084548155915492820180546001600160a01b0390941693909116929092179091556002808301805484939283019190612b1490614e7a565b612b1f929190614286565b506003820181600301908054612b3490614e7a565b612b3f929190614286565b50600491820154910155600a5460009081526014602052604090208254815560018084015490820180546001600160a01b0319166001600160a01b039092169190911790556002808401805485939283019190612b9b90614e7a565b612ba6929190614286565b506003820181600301908054612bbb90614e7a565b612bc6929190614286565b50600491820154908201558254908301546040517f5e192e8247ce4e588ce081d0ffddb155d0cccf25bb8d2de0f4a6fcb18ccbd4f092612c0e929091339189918991906150d5565b60405180910390a150505050565b6000818152600c6020526040902060038101546001909101546001600160a01b0316348214612cb5576040805162461bcd60e51b81526020600482015260248101919091527f506c65617365207375626d6974207468652061736b696e67207072696365206960448201527f6e206f7264657220746f20636f6d706c6574652074686520707572636861736560648201526084016107b8565b6000838152600c602052604090206002810180546001600160a01b0319908116331790915560048201805460ff1916600190811790915590910180549091169055612d04600980546001019055565b612d0f30338561386f565b600754600b546040516001600160a01b039092169181156108fc0291906000818181858888f19350505050158015612d4b573d6000803e3d6000fd5b506040516001600160a01b038216903480156108fc02916000818181858888f193505050501580156129cb573d6000803e3d6000fd5b600a54606090600080826001600160401b03811115612da257612da26147c7565b604051908082528060200260200182016040528015612ddb57816020015b612dc8614301565b815260200190600190039081612dc05790505b50905060005b838110156112e9576000612df6826001614ee2565b600081815260146020908152604091829020825160a0810184528154815260018201546001600160a01b0316928101929092526002810180549495509093919284929084019190612e4690614e7a565b80601f0160208091040260200160405190810160405280929190818152602001828054612e7290614e7a565b8015612ebf5780601f10612e9457610100808354040283529160200191612ebf565b820191906000526020600020905b815481529060010190602001808311612ea257829003601f168201915b50505050508152602001600382018054612ed890614e7a565b80601f0160208091040260200160405190810160405280929190818152602001828054612f0490614e7a565b8015612f515780601f10612f2657610100808354040283529160200191612f51565b820191906000526020600020905b815481529060010190602001808311612f3457829003601f168201915b50505050508152602001600482015481525050848681518110612f7657612f76614efa565b6020908102919091010152612f8c600186614ee2565b945050508080612f9b90614f10565b915050612de1565b6060612fae8261377b565b60008281526006602052604081208054612fc790614e7a565b80601f0160208091040260200160405190810160405280929190818152602001828054612ff390614e7a565b80156130405780601f1061301557610100808354040283529160200191613040565b820191906000526020600020905b81548152906001019060200180831161302357829003601f168201915b50505050509050600061305e60408051602081019091526000815290565b9050805160001415613071575092915050565b8151156130a357808260405160200161308b929190615124565b60405160208183030381529060405292505050919050565b6130ac84613e5d565b949350505050565b6000818152601460205260408082206001810154915190926001600160a01b03909216913480156108fc02929091818181858888f193505050501580156130ff573d6000803e3d6000fd5b503481600401546131109190614ee2565b600482015560008281526014602052604090208154815560018083015490820180546001600160a01b0319166001600160a01b03909216919091179055600280830180548493928301919061316490614e7a565b61316f929190614286565b50600382018160030190805461318490614e7a565b61318f929190614286565b506004918201549101555050565b6000828152600c60205260409020600201546001600160a01b031633146132195760405162461bcd60e51b815260206004820152602a60248201527f4f6e6c79206974656d206f776e65722063616e20706572666f726d20746869736044820152691037b832b930ba34b7b760b11b60648201526084016107b8565b600b54341461323a5760405162461bcd60e51b81526004016107b890615153565b6000828152600c6020526040902060048101805460ff19169055600381018290556001810180546001600160a01b03199081163317909155600290910180549091163017905561328a6009613ed1565b6126ae33308461386f565b6001600160a01b03918216600090815260056020908152604080832093909416825291909152205460ff1690565b336000908152600e602090815260408083206010835281842054845290915281206001015460609180826001600160401b03811115613304576133046147c7565b60405190808252806020026020018201604052801561333d57816020015b61332a614339565b8152602001906001900390816133225790505b50905060005b83811015610b8a57336000908152600e602052604081208791613367846001614ee2565b815260200190815260200160002060000154141561376957600061338c826001614ee2565b90506000600e6000336001600160a01b03166001600160a01b0316815260200190815260200160002060008381526020019081526020016000209050806040518060c001604052908160008201548152602001600182015481526020016002820154815260200160038201805461340290614e7a565b80601f016020809104026020016040519081016040528092919081815260200182805461342e90614e7a565b801561347b5780601f106134505761010080835404028352916020019161347b565b820191906000526020600020905b81548152906001019060200180831161345e57829003601f168201915b50505050508152602001600482016040518061014001604052908160008201548152602001600182015481526020016002820180546134b990614e7a565b80601f01602080910402602001604051908101604052809291908181526020018280546134e590614e7a565b80156135325780601f1061350757610100808354040283529160200191613532565b820191906000526020600020905b81548152906001019060200180831161351557829003601f168201915b505050505081526020016003820154815260200160048201805461355590614e7a565b80601f016020809104026020016040519081016040528092919081815260200182805461358190614e7a565b80156135ce5780601f106135a3576101008083540402835291602001916135ce565b820191906000526020600020905b8154815290600101906020018083116135b157829003601f168201915b505050505081526020016005820180546135e790614e7a565b80601f016020809104026020016040519081016040528092919081815260200182805461361390614e7a565b80156136605780601f1061363557610100808354040283529160200191613660565b820191906000526020600020905b81548152906001019060200180831161364357829003601f168201915b505050505081526020016006820154815260200160078201805461368390614e7a565b80601f01602080910402602001604051908101604052809291908181526020018280546136af90614e7a565b80156136fc5780601f106136d1576101008083540402835291602001916136fc565b820191906000526020600020905b8154815290600101906020018083116136df57829003601f168201915b505050918352505060088201546020808301919091526009909201546001600160a01b03908116604090920191909152918352600e939093015416910152845185908790811061374e5761374e614efa565b6020908102919091010152613764600186614ee2565b945050505b8061377381614f10565b915050613343565b61378481613f26565b6137a05760405162461bcd60e51b81526004016107b890614f79565b50565b600081815260046020526040902080546001600160a01b0319166001600160a01b03841690811790915581906137d882611e04565b6001600160a01b03167f8c5be1e5ebec7d5bd14f71427d1e84f3dd0314c0f7b2291e5b200ac8c7c3b92560405160405180910390a45050565b60008061381d83611e04565b9050806001600160a01b0316846001600160a01b0316148061384457506138448185613295565b806130ac5750836001600160a01b031661385d8461071c565b6001600160a01b031614949350505050565b826001600160a01b031661388282611e04565b6001600160a01b0316146138e65760405162461bcd60e51b815260206004820152602560248201527f4552433732313a207472616e736665722066726f6d20696e636f72726563742060448201526437bbb732b960d91b60648201526084016107b8565b6001600160a01b0382166139485760405162461bcd60e51b8152602060048201526024808201527f4552433732313a207472616e7366657220746f20746865207a65726f206164646044820152637265737360e01b60648201526084016107b8565b6139536000826137a3565b6001600160a01b038316600090815260036020526040812080546001929061397c908490614ecb565b90915550506001600160a01b03821660009081526003602052604081208054600192906139aa908490614ee2565b909155505060008181526002602052604080822080546001600160a01b0319166001600160a01b0386811691821790925591518493918716916000805160206152e783398151915291a4505050565b6001600160a01b038216613a4f5760405162461bcd60e51b815260206004820181905260248201527f4552433732313a206d696e7420746f20746865207a65726f206164647265737360448201526064016107b8565b613a5881613f26565b15613aa45760405162461bcd60e51b815260206004820152601c60248201527b115490cdcc8c4e881d1bdad95b88185b1c9958591e481b5a5b9d195960221b60448201526064016107b8565b6001600160a01b0382166000908152600360205260408120805460019290613acd908490614ee2565b909155505060008181526002602052604080822080546001600160a01b0319166001600160a01b03861690811790915590518392906000805160206152e7833981519152908290a45050565b613b2282613f26565b613b855760405162461bcd60e51b815260206004820152602e60248201527f45524337323155524953746f726167653a2055524920736574206f66206e6f6e60448201526d32bc34b9ba32b73a103a37b5b2b760911b60648201526084016107b8565b6000828152600660209081526040909120825161085992840190614202565b60008411613bf35760405162461bcd60e51b815260206004820152601c60248201527b5072696365206d757374206265206174206c6561737420312077656960201b60448201526064016107b8565b600b543414613c145760405162461bcd60e51b81526004016107b890615153565b6040805161010081018252868152336020808301918252308385019081526060840189815260006080860181815260a087018b815260c088018b905260e088018a90528d8352600c8652979091208651815594516001860180546001600160a01b03199081166001600160a01b039384161790915593516002870180549095169116179092555160038401555160048301805460ff19169115159190911790559251805192939192613ccc9260058501920190614202565b5060c08201518051613ce8916006840191602090910190614202565b5060e08201518051613d04916007840191602090910190614202565b50905050613d1333308761386f565b847f92d5fdcbed7ff2adc67c1a3e81b1f62968651ced121e6ea00b2a9edbf1882d603330876000888888604051613d509796959493929190615197565b60405180910390a25050505050565b816001600160a01b0316836001600160a01b03161415613dbd5760405162461bcd60e51b815260206004820152601960248201527822a9219b99189d1030b8383937bb32903a379031b0b63632b960391b60448201526064016107b8565b6001600160a01b03838116600081815260056020908152604080832094871680845294825291829020805460ff191686151590811790915591519182527f17307eab39ab6107e8899845ad3d59bd9653f200f220920489ca2b5937696c31910160405180910390a3505050565b613e3584848461386f565b613e4184848484613f43565b6129cb5760405162461bcd60e51b81526004016107b890615206565b6060613e688261377b565b6000613e7f60408051602081019091526000815290565b90506000815111613e9f5760405180602001604052806000815250613eca565b80613ea984614050565b604051602001613eba929190615124565b6040516020818303038152906040525b9392505050565b805480613f1e5760405162461bcd60e51b815260206004820152601b60248201527a436f756e7465723a2064656372656d656e74206f766572666c6f7760281b60448201526064016107b8565b600019019055565b6000908152600260205260409020546001600160a01b0316151590565b60006001600160a01b0384163b1561404557604051630a85bd0160e11b81526001600160a01b0385169063150b7a0290613f87903390899088908890600401615258565b602060405180830381600087803b158015613fa157600080fd5b505af1925050508015613fd1575060408051601f3d908101601f19168201909252613fce9181019061528b565b60015b61402b573d808015613fff576040519150601f19603f3d011682016040523d82523d6000602084013e614004565b606091505b5080516140235760405162461bcd60e51b81526004016107b890615206565b805181602001fd5b6001600160e01b031916630a85bd0160e11b1490506130ac565b506001949350505050565b6060816140745750506040805180820190915260018152600360fc1b602082015290565b8160005b811561409e578061408881614f10565b91506140979050600a836152be565b9150614078565b6000816001600160401b038111156140b8576140b86147c7565b6040519080825280601f01601f1916602001820160405280156140e2576020820181803683370190505b5090505b84156130ac576140f7600183614ecb565b9150614104600a866152d2565b61410f906030614ee2565b60f81b81838151811061412457614124614efa565b60200101906001600160f81b031916908160001a905350614146600a866152be565b94506140e6565b6040518061010001604052806000815260200160006001600160a01b0316815260200160006001600160a01b03168152602001600081526020016000151581526020016060815260200160608152602001606081525090565b60405180610140016040528060008152602001600081526020016060815260200160008152602001606081526020016060815260200160008152602001606081526020016000815260200160006001600160a01b031681525090565b82805461420e90614e7a565b90600052602060002090601f0160209004810192826142305760008555614276565b82601f1061424957805160ff1916838001178555614276565b82800160010185558215614276579182015b8281111561427657825182559160200191906001019061425b565b50614282929150614375565b5090565b82805461429290614e7a565b90600052602060002090601f0160209004810192826142b45760008555614276565b82601f106142c55780548555614276565b8280016001018555821561427657600052602060002091601f016020900482015b828111156142765782548255916001019190600101906142e6565b6040518060a001604052806000815260200160006001600160a01b031681526020016060815260200160608152602001600081525090565b6040518060c00160405280600081526020016000815260200160008152602001606081526020016143686141a6565b8152600060209091015290565b5b808211156142825760008155600101614376565b6001600160e01b0319811681146137a057600080fd5b6000602082840312156143b257600080fd5b8135613eca8161438a565b60005b838110156143d85781810151838201526020016143c0565b838111156129cb5750506000910152565b600081518084526144018160208601602086016143bd565b601f01601f19169290920160200192915050565b602081526000613eca60208301846143e9565b60006020828403121561443a57600080fd5b5035919050565b6001600160a01b03169052565b80356001600160a01b038116811461446557600080fd5b919050565b6000806040838503121561447d57600080fd5b6144868361444e565b946020939093013593505050565b6000602082840312156144a657600080fd5b613eca8261444e565b60006020808301818452808551808352604092508286019150828160051b87010184880160005b8381101561458d57603f19898403018552815161010081518552888201516145008a870182614441565b508782015161451189870182614441565b506060828101519086015260808083015115159086015260a080830151818701839052614540838801826143e9565b9250505060c0808301518683038288015261455b83826143e9565b9250505060e0808301519250858203818701525061457981836143e9565b9689019694505050908601906001016144d6565b509098975050505050505050565b6000610140825184526020830151602085015260408301518160408601526145c5828601826143e9565b91505060608301516060850152608083015184820360808601526145e982826143e9565b91505060a083015184820360a086015261460382826143e9565b91505060c083015160c085015260e083015184820360e086015261462782826143e9565b9150506101008084015181860152506101208084015161464982870182614441565b5090949350505050565b6000602080830181845280855180835260408601915060408160051b870101925083870160005b828110156146a857603f1988860301845261469685835161459b565b9450928501929085019060010161467a565b5092979650505050505050565b60006020808301818452808551808352604092508286019150828160051b87010184880160005b8381101561458d57603f19898403018552815160e08151818652614702828701826143e9565b915050888201518582038a87015261471a82826143e9565b91505087820151888601526060808301518683038288015261473c83826143e9565b925050506080808301518683038288015261475783826143e9565b60a0858101519089015260c0948501516001600160a01b0316949097019390935250505093860193908601906001016146dc565b6000806000606084860312156147a057600080fd5b6147a98461444e565b92506147b76020850161444e565b9150604084013590509250925092565b634e487b7160e01b600052604160045260246000fd5b60006001600160401b03808411156147f7576147f76147c7565b604051601f8501601f19908116603f0116810190828211818310171561481f5761481f6147c7565b8160405280935085815286868601111561483857600080fd5b858560208301376000602087830101525050509392505050565b600082601f83011261486357600080fd5b613eca838335602085016147dd565b6000806000806080858703121561488857600080fd5b84356001600160401b038082111561489f57600080fd5b6148ab88838901614852565b955060208701359150808211156148c157600080fd5b6148cd88838901614852565b945060408701359150808211156148e357600080fd5b6148ef88838901614852565b9350606087013591508082111561490557600080fd5b5061491287828801614852565b91505092959194509250565b6000806040838503121561493157600080fd5b82356001600160401b0381111561494757600080fd5b61495385828601614852565b95602094909401359450505050565b86815285602082015284604082015260c06060820152600061498760c08301866143e9565b8281036080840152614999818661459b565b91505060018060a01b03831660a0830152979650505050505050565b8051825260018060a01b0360208201511660208301526000604082015160a060408501526149e660a08501826143e9565b9050606083015184820360608601526149ff82826143e9565b915050608083015160808501528091505092915050565b602081526000613eca60208301846149b5565b60008060008060008060c08789031215614a4257600080fd5b8635955060208701356001600160401b0380821115614a6057600080fd5b614a6c8a838b01614852565b9650604089013595506060890135915080821115614a8957600080fd5b614a958a838b01614852565b94506080890135915080821115614aab57600080fd5b614ab78a838b01614852565b935060a0890135915080821115614acd57600080fd5b50614ada89828a01614852565b9150509295509295509295565b600080600080600060a08688031215614aff57600080fd5b85356001600160401b0380821115614b1657600080fd5b614b2289838a01614852565b9650602088013595506040880135915080821115614b3f57600080fd5b614b4b89838a01614852565b94506060880135915080821115614b6157600080fd5b614b6d89838a01614852565b93506080880135915080821115614b8357600080fd5b50614b9088828901614852565b9150509295509295909350565b60008060408385031215614bb057600080fd5b614bb98361444e565b915060208301358015158114614bce57600080fd5b809150509250929050565b60e081526000614bec60e083018a6143e9565b8281036020840152614bfe818a6143e9565b90508760408401528281036060840152614c1881886143e9565b90508281036080840152614c2c81876143e9565b60a084019590955250506001600160a01b039190911660c09091015295945050505050565b60008060008060808587031215614c6757600080fd5b614c708561444e565b9350614c7e6020860161444e565b92506040850135915060608501356001600160401b03811115614ca057600080fd5b8501601f81018713614cb157600080fd5b614912878235602084016147dd565b60008060408385031215614cd357600080fd5b82356001600160401b0380821115614cea57600080fd5b614cf686838701614852565b93506020850135915080821115614d0c57600080fd5b50614d1985828601614852565b9150509250929050565b6000602080830181845280855180835260408601915060408160051b870101925083870160005b828110156146a857603f19888603018452614d668583516149b5565b94509285019290850190600101614d4a565b60008060408385031215614d8b57600080fd5b50508035926020909101359150565b60008060408385031215614dad57600080fd5b614db68361444e565b9150614dc46020840161444e565b90509250929050565b60006020808301818452808551808352604092508286019150828160051b87010184880160005b8381101561458d57603f19898403018552815160c081518552888201518986015287820151888601526060808301518282880152614e34838801826143e9565b9250505060808083015186830382880152614e4f838261459b565b60a0948501516001600160a01b03169790940196909652505094870194925090860190600101614df4565b600181811c90821680614e8e57607f821691505b60208210811415614eaf57634e487b7160e01b600052602260045260246000fd5b50919050565b634e487b7160e01b600052601160045260246000fd5b600082821015614edd57614edd614eb5565b500390565b60008219821115614ef557614ef5614eb5565b500190565b634e487b7160e01b600052603260045260246000fd5b6000600019821415614f2457614f24614eb5565b5060010190565b6020808252602e908201527f4552433732313a2063616c6c6572206973206e6f7420746f6b656e206f776e6560408201526d1c881b9bdc88185c1c1c9bdd995960921b606082015260800190565b602080825260189082015277115490cdcc8c4e881a5b9d985b1a59081d1bdad95b88125160421b604082015260600190565b8054600090600181811c9080831680614fc557607f831692505b6020808410821415614fe757634e487b7160e01b600052602260045260246000fd5b8388526020880182801561500257600181146150135761503e565b60ff1987168252828201975061503e565b60008981526020902060005b878110156150385781548482015290860190840161501f565b83019850505b5050505050505092915050565b60006101208b83528060208401526150658184018c614fab565b9050896040840152828103606084015261507f818a614fab565b905082810360808401526150938189614fab565b90508660a084015282810360c08401526150ad8187614fab565b60e084019590955250506001600160a01b039190911661010090910152979650505050505050565b8581526001600160a01b038516602082015260a0604082018190526000906150ff908301866143e9565b828103606084015261511181866143e9565b9150508260808301529695505050505050565b600083516151368184602088016143bd565b83519083019061514a8183602088016143bd565b01949350505050565b60208082526024908201527f5072696365206d75737420626520657175616c20746f206c697374696e6720706040820152637269636560e01b606082015260800190565b6001600160a01b0388811682528716602082015260408101869052841515606082015260e0608082018190526000906151d2908301866143e9565b82810360a08401526151e481866143e9565b905082810360c08401526151f881856143e9565b9a9950505050505050505050565b60208082526032908201527f4552433732313a207472616e7366657220746f206e6f6e20455243373231526560408201527131b2b4bb32b91034b6b83632b6b2b73a32b960711b606082015260800190565b6001600160a01b0385811682528416602082015260408101839052608060608201819052600090612699908301846143e9565b60006020828403121561529d57600080fd5b8151613eca8161438a565b634e487b7160e01b600052601260045260246000fd5b6000826152cd576152cd6152a8565b500490565b6000826152e1576152e16152a8565b50069056feddf252ad1be2c89b69c2b068fc378daa952ba7f163c4a11628f55a4df523b3efa26469706673582212209c9caf72459e03cf95cabc50675b50bc57ee82bccdd065b9e2287eff481fdba964736f6c63430008090033",
  "linkReferences": {},
  "deployedLinkReferences": {}
}