{
    "_format": "hh-sol-artifact-1",
    "contractName": "Donation",
    "sourceName": "contracts/Donation.sol",
    "abi": [
        {
            "inputs": [
                {
                    "internalType": "address",
                    "name": "companyaddress_",
                    "type": "address"
                }
            ],
            "stateMutability": "nonpayable",
            "type": "constructor"
        },
        {
            "anonymous": false,
            "inputs": [
                {
                    "indexed": false,
                    "internalType": "uint256",
                    "name": "_id",
                    "type": "uint256"
                },
                {
                    "indexed": false,
                    "internalType": "address",
                    "name": "_owner",
                    "type": "address"
                },
                {
                    "indexed": false,
                    "internalType": "uint256",
                    "name": "donersCount",
                    "type": "uint256"
                },
                {
                    "indexed": false,
                    "internalType": "uint256",
                    "name": "donationsRaised",
                    "type": "uint256"
                },
                {
                    "indexed": false,
                    "internalType": "uint256",
                    "name": "startDate",
                    "type": "uint256"
                },
                {
                    "indexed": false,
                    "internalType": "uint256",
                    "name": "endDate",
                    "type": "uint256"
                },
                {
                    "indexed": false,
                    "internalType": "uint256",
                    "name": "targetedAmount",
                    "type": "uint256"
                },
                {
                    "indexed": false,
                    "internalType": "string",
                    "name": "category",
                    "type": "string"
                },
                {
                    "indexed": false,
                    "internalType": "string",
                    "name": "title",
                    "type": "string"
                },
                {
                    "indexed": false,
                    "internalType": "string",
                    "name": "hash",
                    "type": "string"
                },
                {
                    "indexed": false,
                    "internalType": "string",
                    "name": "purpose",
                    "type": "string"
                },
                {
                    "indexed": false,
                    "internalType": "string",
                    "name": "description",
                    "type": "string"
                }
            ],
            "name": "DonationAdded",
            "type": "event"
        },
        {
            "inputs": [
                {
                    "internalType": "uint256",
                    "name": "_id",
                    "type": "uint256"
                }
            ],
            "name": "addDonation",
            "outputs": [],
            "stateMutability": "payable",
            "type": "function"
        },
        {
            "inputs": [],
            "name": "amountRaised",
            "outputs": [
                {
                    "internalType": "uint256",
                    "name": "",
                    "type": "uint256"
                }
            ],
            "stateMutability": "view",
            "type": "function"
        },
        {
            "inputs": [
                {
                    "internalType": "uint256",
                    "name": "_id",
                    "type": "uint256"
                }
            ],
            "name": "approveDonation",
            "outputs": [],
            "stateMutability": "nonpayable",
            "type": "function"
        },
        {
            "inputs": [
                {
                    "components": [
                        {
                            "internalType": "uint256",
                            "name": "id",
                            "type": "uint256"
                        },
                        {
                            "internalType": "address payable",
                            "name": "owner",
                            "type": "address"
                        },
                        {
                            "components": [
                                {
                                    "internalType": "uint256",
                                    "name": "id",
                                    "type": "uint256"
                                },
                                {
                                    "internalType": "address",
                                    "name": "_address",
                                    "type": "address"
                                },
                                {
                                    "internalType": "string",
                                    "name": "userType",
                                    "type": "string"
                                },
                                {
                                    "internalType": "string",
                                    "name": "country",
                                    "type": "string"
                                },
                                {
                                    "internalType": "string",
                                    "name": "city",
                                    "type": "string"
                                },
                                {
                                    "internalType": "string",
                                    "name": "email",
                                    "type": "string"
                                },
                                {
                                    "internalType": "string",
                                    "name": "residenceAddress",
                                    "type": "string"
                                },
                                {
                                    "internalType": "bool",
                                    "name": "isRegistered",
                                    "type": "bool"
                                },
                                {
                                    "internalType": "string",
                                    "name": "website",
                                    "type": "string"
                                },
                                {
                                    "internalType": "string",
                                    "name": "facebookUrl",
                                    "type": "string"
                                },
                                {
                                    "internalType": "string",
                                    "name": "twitterUrl",
                                    "type": "string"
                                },
                                {
                                    "internalType": "string",
                                    "name": "instagramUrl",
                                    "type": "string"
                                },
                                {
                                    "internalType": "string",
                                    "name": "youtubeUrl",
                                    "type": "string"
                                },
                                {
                                    "internalType": "string",
                                    "name": "hash",
                                    "type": "string"
                                }
                            ],
                            "internalType": "struct Donation.User",
                            "name": "user",
                            "type": "tuple"
                        },
                        {
                            "internalType": "uint256",
                            "name": "donersCount",
                            "type": "uint256"
                        },
                        {
                            "internalType": "uint256",
                            "name": "donationsRaised",
                            "type": "uint256"
                        },
                        {
                            "internalType": "uint256",
                            "name": "startDate",
                            "type": "uint256"
                        },
                        {
                            "internalType": "uint256",
                            "name": "endDate",
                            "type": "uint256"
                        },
                        {
                            "internalType": "uint256",
                            "name": "targetedAmount",
                            "type": "uint256"
                        },
                        {
                            "internalType": "string",
                            "name": "category",
                            "type": "string"
                        },
                        {
                            "internalType": "string",
                            "name": "title",
                            "type": "string"
                        },
                        {
                            "internalType": "string",
                            "name": "hash",
                            "type": "string"
                        },
                        {
                            "internalType": "string",
                            "name": "purpose",
                            "type": "string"
                        },
                        {
                            "internalType": "string",
                            "name": "description",
                            "type": "string"
                        },
                        {
                            "components": [
                                {
                                    "internalType": "bool",
                                    "name": "completed",
                                    "type": "bool"
                                },
                                {
                                    "internalType": "bool",
                                    "name": "isPinned",
                                    "type": "bool"
                                },
                                {
                                    "internalType": "uint256",
                                    "name": "pinnedDuration",
                                    "type": "uint256"
                                },
                                {
                                    "internalType": "uint256",
                                    "name": "pinnedEndDate",
                                    "type": "uint256"
                                },
                                {
                                    "internalType": "bool",
                                    "name": "isVisible",
                                    "type": "bool"
                                },
                                {
                                    "internalType": "bool",
                                    "name": "isApproved",
                                    "type": "bool"
                                },
                                {
                                    "internalType": "uint256",
                                    "name": "approvedDate",
                                    "type": "uint256"
                                },
                                {
                                    "internalType": "bool",
                                    "name": "isRejected",
                                    "type": "bool"
                                }
                            ],
                            "internalType": "struct Donation.DonationStatus",
                            "name": "donationstatus",
                            "type": "tuple"
                        }
                    ],
                    "internalType": "struct Donation.DonationItem",
                    "name": "donation_",
                    "type": "tuple"
                },
                {
                    "internalType": "uint256",
                    "name": "id_",
                    "type": "uint256"
                }
            ],
            "name": "createDonation",
            "outputs": [],
            "stateMutability": "payable",
            "type": "function"
        },
        {
            "inputs": [
                {
                    "internalType": "uint256",
                    "name": "_id",
                    "type": "uint256"
                }
            ],
            "name": "disablePinnedDonation",
            "outputs": [],
            "stateMutability": "nonpayable",
            "type": "function"
        },
        {
            "inputs": [],
            "name": "donationCount",
            "outputs": [
                {
                    "internalType": "uint256",
                    "name": "",
                    "type": "uint256"
                }
            ],
            "stateMutability": "view",
            "type": "function"
        },
        {
            "inputs": [
                {
                    "internalType": "uint256",
                    "name": "",
                    "type": "uint256"
                },
                {
                    "internalType": "uint256",
                    "name": "",
                    "type": "uint256"
                }
            ],
            "name": "doners",
            "outputs": [
                {
                    "internalType": "uint256",
                    "name": "id",
                    "type": "uint256"
                },
                {
                    "internalType": "uint256",
                    "name": "amount",
                    "type": "uint256"
                },
                {
                    "internalType": "uint256",
                    "name": "date",
                    "type": "uint256"
                },
                {
                    "internalType": "address",
                    "name": "doner",
                    "type": "address"
                }
            ],
            "stateMutability": "view",
            "type": "function"
        },
        {
            "inputs": [],
            "name": "donersCount",
            "outputs": [
                {
                    "internalType": "uint256",
                    "name": "",
                    "type": "uint256"
                }
            ],
            "stateMutability": "view",
            "type": "function"
        },
        {
            "inputs": [],
            "name": "fetchAllDonationItems",
            "outputs": [
                {
                    "components": [
                        {
                            "internalType": "uint256",
                            "name": "id",
                            "type": "uint256"
                        },
                        {
                            "internalType": "address payable",
                            "name": "owner",
                            "type": "address"
                        },
                        {
                            "components": [
                                {
                                    "internalType": "uint256",
                                    "name": "id",
                                    "type": "uint256"
                                },
                                {
                                    "internalType": "address",
                                    "name": "_address",
                                    "type": "address"
                                },
                                {
                                    "internalType": "string",
                                    "name": "userType",
                                    "type": "string"
                                },
                                {
                                    "internalType": "string",
                                    "name": "country",
                                    "type": "string"
                                },
                                {
                                    "internalType": "string",
                                    "name": "city",
                                    "type": "string"
                                },
                                {
                                    "internalType": "string",
                                    "name": "email",
                                    "type": "string"
                                },
                                {
                                    "internalType": "string",
                                    "name": "residenceAddress",
                                    "type": "string"
                                },
                                {
                                    "internalType": "bool",
                                    "name": "isRegistered",
                                    "type": "bool"
                                },
                                {
                                    "internalType": "string",
                                    "name": "website",
                                    "type": "string"
                                },
                                {
                                    "internalType": "string",
                                    "name": "facebookUrl",
                                    "type": "string"
                                },
                                {
                                    "internalType": "string",
                                    "name": "twitterUrl",
                                    "type": "string"
                                },
                                {
                                    "internalType": "string",
                                    "name": "instagramUrl",
                                    "type": "string"
                                },
                                {
                                    "internalType": "string",
                                    "name": "youtubeUrl",
                                    "type": "string"
                                },
                                {
                                    "internalType": "string",
                                    "name": "hash",
                                    "type": "string"
                                }
                            ],
                            "internalType": "struct Donation.User",
                            "name": "user",
                            "type": "tuple"
                        },
                        {
                            "internalType": "uint256",
                            "name": "donersCount",
                            "type": "uint256"
                        },
                        {
                            "internalType": "uint256",
                            "name": "donationsRaised",
                            "type": "uint256"
                        },
                        {
                            "internalType": "uint256",
                            "name": "startDate",
                            "type": "uint256"
                        },
                        {
                            "internalType": "uint256",
                            "name": "endDate",
                            "type": "uint256"
                        },
                        {
                            "internalType": "uint256",
                            "name": "targetedAmount",
                            "type": "uint256"
                        },
                        {
                            "internalType": "string",
                            "name": "category",
                            "type": "string"
                        },
                        {
                            "internalType": "string",
                            "name": "title",
                            "type": "string"
                        },
                        {
                            "internalType": "string",
                            "name": "hash",
                            "type": "string"
                        },
                        {
                            "internalType": "string",
                            "name": "purpose",
                            "type": "string"
                        },
                        {
                            "internalType": "string",
                            "name": "description",
                            "type": "string"
                        },
                        {
                            "components": [
                                {
                                    "internalType": "bool",
                                    "name": "completed",
                                    "type": "bool"
                                },
                                {
                                    "internalType": "bool",
                                    "name": "isPinned",
                                    "type": "bool"
                                },
                                {
                                    "internalType": "uint256",
                                    "name": "pinnedDuration",
                                    "type": "uint256"
                                },
                                {
                                    "internalType": "uint256",
                                    "name": "pinnedEndDate",
                                    "type": "uint256"
                                },
                                {
                                    "internalType": "bool",
                                    "name": "isVisible",
                                    "type": "bool"
                                },
                                {
                                    "internalType": "bool",
                                    "name": "isApproved",
                                    "type": "bool"
                                },
                                {
                                    "internalType": "uint256",
                                    "name": "approvedDate",
                                    "type": "uint256"
                                },
                                {
                                    "internalType": "bool",
                                    "name": "isRejected",
                                    "type": "bool"
                                }
                            ],
                            "internalType": "struct Donation.DonationStatus",
                            "name": "donationstatus",
                            "type": "tuple"
                        }
                    ],
                    "internalType": "struct Donation.DonationItem[]",
                    "name": "",
                    "type": "tuple[]"
                }
            ],
            "stateMutability": "view",
            "type": "function"
        },
        {
            "inputs": [],
            "name": "fetchAllUsers",
            "outputs": [
                {
                    "components": [
                        {
                            "internalType": "uint256",
                            "name": "id",
                            "type": "uint256"
                        },
                        {
                            "internalType": "address",
                            "name": "_address",
                            "type": "address"
                        },
                        {
                            "internalType": "string",
                            "name": "userType",
                            "type": "string"
                        },
                        {
                            "internalType": "string",
                            "name": "country",
                            "type": "string"
                        },
                        {
                            "internalType": "string",
                            "name": "city",
                            "type": "string"
                        },
                        {
                            "internalType": "string",
                            "name": "email",
                            "type": "string"
                        },
                        {
                            "internalType": "string",
                            "name": "residenceAddress",
                            "type": "string"
                        },
                        {
                            "internalType": "bool",
                            "name": "isRegistered",
                            "type": "bool"
                        },
                        {
                            "internalType": "string",
                            "name": "website",
                            "type": "string"
                        },
                        {
                            "internalType": "string",
                            "name": "facebookUrl",
                            "type": "string"
                        },
                        {
                            "internalType": "string",
                            "name": "twitterUrl",
                            "type": "string"
                        },
                        {
                            "internalType": "string",
                            "name": "instagramUrl",
                            "type": "string"
                        },
                        {
                            "internalType": "string",
                            "name": "youtubeUrl",
                            "type": "string"
                        },
                        {
                            "internalType": "string",
                            "name": "hash",
                            "type": "string"
                        }
                    ],
                    "internalType": "struct Donation.User[]",
                    "name": "",
                    "type": "tuple[]"
                }
            ],
            "stateMutability": "view",
            "type": "function"
        },
        {
            "inputs": [
                {
                    "internalType": "uint256",
                    "name": "_id",
                    "type": "uint256"
                }
            ],
            "name": "getDonation",
            "outputs": [
                {
                    "components": [
                        {
                            "internalType": "uint256",
                            "name": "id",
                            "type": "uint256"
                        },
                        {
                            "internalType": "address payable",
                            "name": "owner",
                            "type": "address"
                        },
                        {
                            "components": [
                                {
                                    "internalType": "uint256",
                                    "name": "id",
                                    "type": "uint256"
                                },
                                {
                                    "internalType": "address",
                                    "name": "_address",
                                    "type": "address"
                                },
                                {
                                    "internalType": "string",
                                    "name": "userType",
                                    "type": "string"
                                },
                                {
                                    "internalType": "string",
                                    "name": "country",
                                    "type": "string"
                                },
                                {
                                    "internalType": "string",
                                    "name": "city",
                                    "type": "string"
                                },
                                {
                                    "internalType": "string",
                                    "name": "email",
                                    "type": "string"
                                },
                                {
                                    "internalType": "string",
                                    "name": "residenceAddress",
                                    "type": "string"
                                },
                                {
                                    "internalType": "bool",
                                    "name": "isRegistered",
                                    "type": "bool"
                                },
                                {
                                    "internalType": "string",
                                    "name": "website",
                                    "type": "string"
                                },
                                {
                                    "internalType": "string",
                                    "name": "facebookUrl",
                                    "type": "string"
                                },
                                {
                                    "internalType": "string",
                                    "name": "twitterUrl",
                                    "type": "string"
                                },
                                {
                                    "internalType": "string",
                                    "name": "instagramUrl",
                                    "type": "string"
                                },
                                {
                                    "internalType": "string",
                                    "name": "youtubeUrl",
                                    "type": "string"
                                },
                                {
                                    "internalType": "string",
                                    "name": "hash",
                                    "type": "string"
                                }
                            ],
                            "internalType": "struct Donation.User",
                            "name": "user",
                            "type": "tuple"
                        },
                        {
                            "internalType": "uint256",
                            "name": "donersCount",
                            "type": "uint256"
                        },
                        {
                            "internalType": "uint256",
                            "name": "donationsRaised",
                            "type": "uint256"
                        },
                        {
                            "internalType": "uint256",
                            "name": "startDate",
                            "type": "uint256"
                        },
                        {
                            "internalType": "uint256",
                            "name": "endDate",
                            "type": "uint256"
                        },
                        {
                            "internalType": "uint256",
                            "name": "targetedAmount",
                            "type": "uint256"
                        },
                        {
                            "internalType": "string",
                            "name": "category",
                            "type": "string"
                        },
                        {
                            "internalType": "string",
                            "name": "title",
                            "type": "string"
                        },
                        {
                            "internalType": "string",
                            "name": "hash",
                            "type": "string"
                        },
                        {
                            "internalType": "string",
                            "name": "purpose",
                            "type": "string"
                        },
                        {
                            "internalType": "string",
                            "name": "description",
                            "type": "string"
                        },
                        {
                            "components": [
                                {
                                    "internalType": "bool",
                                    "name": "completed",
                                    "type": "bool"
                                },
                                {
                                    "internalType": "bool",
                                    "name": "isPinned",
                                    "type": "bool"
                                },
                                {
                                    "internalType": "uint256",
                                    "name": "pinnedDuration",
                                    "type": "uint256"
                                },
                                {
                                    "internalType": "uint256",
                                    "name": "pinnedEndDate",
                                    "type": "uint256"
                                },
                                {
                                    "internalType": "bool",
                                    "name": "isVisible",
                                    "type": "bool"
                                },
                                {
                                    "internalType": "bool",
                                    "name": "isApproved",
                                    "type": "bool"
                                },
                                {
                                    "internalType": "uint256",
                                    "name": "approvedDate",
                                    "type": "uint256"
                                },
                                {
                                    "internalType": "bool",
                                    "name": "isRejected",
                                    "type": "bool"
                                }
                            ],
                            "internalType": "struct Donation.DonationStatus",
                            "name": "donationstatus",
                            "type": "tuple"
                        }
                    ],
                    "internalType": "struct Donation.DonationItem",
                    "name": "",
                    "type": "tuple"
                }
            ],
            "stateMutability": "view",
            "type": "function"
        },
        {
            "inputs": [
                {
                    "internalType": "uint256",
                    "name": "_id",
                    "type": "uint256"
                }
            ],
            "name": "getDonersOfDonation",
            "outputs": [
                {
                    "components": [
                        {
                            "internalType": "uint256",
                            "name": "id",
                            "type": "uint256"
                        },
                        {
                            "internalType": "uint256",
                            "name": "amount",
                            "type": "uint256"
                        },
                        {
                            "internalType": "uint256",
                            "name": "date",
                            "type": "uint256"
                        },
                        {
                            "internalType": "address",
                            "name": "doner",
                            "type": "address"
                        }
                    ],
                    "internalType": "struct Donation.Doners[]",
                    "name": "",
                    "type": "tuple[]"
                }
            ],
            "stateMutability": "view",
            "type": "function"
        },
        {
            "inputs": [],
            "name": "getEthUsd",
            "outputs": [
                {
                    "internalType": "uint256",
                    "name": "",
                    "type": "uint256"
                }
            ],
            "stateMutability": "view",
            "type": "function"
        },
        {
            "inputs": [
                {
                    "internalType": "uint256",
                    "name": "",
                    "type": "uint256"
                }
            ],
            "name": "idToDonationItem",
            "outputs": [
                {
                    "internalType": "uint256",
                    "name": "id",
                    "type": "uint256"
                },
                {
                    "internalType": "address payable",
                    "name": "owner",
                    "type": "address"
                },
                {
                    "components": [
                        {
                            "internalType": "uint256",
                            "name": "id",
                            "type": "uint256"
                        },
                        {
                            "internalType": "address",
                            "name": "_address",
                            "type": "address"
                        },
                        {
                            "internalType": "string",
                            "name": "userType",
                            "type": "string"
                        },
                        {
                            "internalType": "string",
                            "name": "country",
                            "type": "string"
                        },
                        {
                            "internalType": "string",
                            "name": "city",
                            "type": "string"
                        },
                        {
                            "internalType": "string",
                            "name": "email",
                            "type": "string"
                        },
                        {
                            "internalType": "string",
                            "name": "residenceAddress",
                            "type": "string"
                        },
                        {
                            "internalType": "bool",
                            "name": "isRegistered",
                            "type": "bool"
                        },
                        {
                            "internalType": "string",
                            "name": "website",
                            "type": "string"
                        },
                        {
                            "internalType": "string",
                            "name": "facebookUrl",
                            "type": "string"
                        },
                        {
                            "internalType": "string",
                            "name": "twitterUrl",
                            "type": "string"
                        },
                        {
                            "internalType": "string",
                            "name": "instagramUrl",
                            "type": "string"
                        },
                        {
                            "internalType": "string",
                            "name": "youtubeUrl",
                            "type": "string"
                        },
                        {
                            "internalType": "string",
                            "name": "hash",
                            "type": "string"
                        }
                    ],
                    "internalType": "struct Donation.User",
                    "name": "user",
                    "type": "tuple"
                },
                {
                    "internalType": "uint256",
                    "name": "donersCount",
                    "type": "uint256"
                },
                {
                    "internalType": "uint256",
                    "name": "donationsRaised",
                    "type": "uint256"
                },
                {
                    "internalType": "uint256",
                    "name": "startDate",
                    "type": "uint256"
                },
                {
                    "internalType": "uint256",
                    "name": "endDate",
                    "type": "uint256"
                },
                {
                    "internalType": "uint256",
                    "name": "targetedAmount",
                    "type": "uint256"
                },
                {
                    "internalType": "string",
                    "name": "category",
                    "type": "string"
                },
                {
                    "internalType": "string",
                    "name": "title",
                    "type": "string"
                },
                {
                    "internalType": "string",
                    "name": "hash",
                    "type": "string"
                },
                {
                    "internalType": "string",
                    "name": "purpose",
                    "type": "string"
                },
                {
                    "internalType": "string",
                    "name": "description",
                    "type": "string"
                },
                {
                    "components": [
                        {
                            "internalType": "bool",
                            "name": "completed",
                            "type": "bool"
                        },
                        {
                            "internalType": "bool",
                            "name": "isPinned",
                            "type": "bool"
                        },
                        {
                            "internalType": "uint256",
                            "name": "pinnedDuration",
                            "type": "uint256"
                        },
                        {
                            "internalType": "uint256",
                            "name": "pinnedEndDate",
                            "type": "uint256"
                        },
                        {
                            "internalType": "bool",
                            "name": "isVisible",
                            "type": "bool"
                        },
                        {
                            "internalType": "bool",
                            "name": "isApproved",
                            "type": "bool"
                        },
                        {
                            "internalType": "uint256",
                            "name": "approvedDate",
                            "type": "uint256"
                        },
                        {
                            "internalType": "bool",
                            "name": "isRejected",
                            "type": "bool"
                        }
                    ],
                    "internalType": "struct Donation.DonationStatus",
                    "name": "donationstatus",
                    "type": "tuple"
                }
            ],
            "stateMutability": "view",
            "type": "function"
        },
        {
            "inputs": [],
            "name": "isUserRegistered",
            "outputs": [
                {
                    "components": [
                        {
                            "internalType": "bool",
                            "name": "status",
                            "type": "bool"
                        },
                        {
                            "internalType": "string",
                            "name": "userType",
                            "type": "string"
                        },
                        {
                            "internalType": "uint256",
                            "name": "id",
                            "type": "uint256"
                        }
                    ],
                    "internalType": "struct Donation.IsRegistered",
                    "name": "",
                    "type": "tuple"
                }
            ],
            "stateMutability": "view",
            "type": "function"
        },
        {
            "inputs": [
                {
                    "internalType": "uint256",
                    "name": "_id",
                    "type": "uint256"
                },
                {
                    "internalType": "uint256",
                    "name": "_duration",
                    "type": "uint256"
                },
                {
                    "internalType": "uint256",
                    "name": "_pinnedEndDate",
                    "type": "uint256"
                }
            ],
            "name": "pinDonation",
            "outputs": [],
            "stateMutability": "payable",
            "type": "function"
        },
        {
            "inputs": [
                {
                    "internalType": "address",
                    "name": "",
                    "type": "address"
                }
            ],
            "name": "registeredUsers",
            "outputs": [
                {
                    "internalType": "bool",
                    "name": "status",
                    "type": "bool"
                },
                {
                    "internalType": "string",
                    "name": "userType",
                    "type": "string"
                },
                {
                    "internalType": "uint256",
                    "name": "id",
                    "type": "uint256"
                }
            ],
            "stateMutability": "view",
            "type": "function"
        },
        {
            "inputs": [
                {
                    "internalType": "uint256",
                    "name": "_id",
                    "type": "uint256"
                }
            ],
            "name": "rejectDonation",
            "outputs": [],
            "stateMutability": "nonpayable",
            "type": "function"
        },
        {
            "inputs": [
                {
                    "internalType": "uint256",
                    "name": "",
                    "type": "uint256"
                }
            ],
            "name": "users",
            "outputs": [
                {
                    "internalType": "uint256",
                    "name": "id",
                    "type": "uint256"
                },
                {
                    "internalType": "address",
                    "name": "_address",
                    "type": "address"
                },
                {
                    "internalType": "string",
                    "name": "userType",
                    "type": "string"
                },
                {
                    "internalType": "string",
                    "name": "country",
                    "type": "string"
                },
                {
                    "internalType": "string",
                    "name": "city",
                    "type": "string"
                },
                {
                    "internalType": "string",
                    "name": "email",
                    "type": "string"
                },
                {
                    "internalType": "string",
                    "name": "residenceAddress",
                    "type": "string"
                },
                {
                    "internalType": "bool",
                    "name": "isRegistered",
                    "type": "bool"
                },
                {
                    "internalType": "string",
                    "name": "website",
                    "type": "string"
                },
                {
                    "internalType": "string",
                    "name": "facebookUrl",
                    "type": "string"
                },
                {
                    "internalType": "string",
                    "name": "twitterUrl",
                    "type": "string"
                },
                {
                    "internalType": "string",
                    "name": "instagramUrl",
                    "type": "string"
                },
                {
                    "internalType": "string",
                    "name": "youtubeUrl",
                    "type": "string"
                },
                {
                    "internalType": "string",
                    "name": "hash",
                    "type": "string"
                }
            ],
            "stateMutability": "view",
            "type": "function"
        },
        {
            "inputs": [],
            "name": "usersCount",
            "outputs": [
                {
                    "internalType": "uint256",
                    "name": "",
                    "type": "uint256"
                }
            ],
            "stateMutability": "view",
            "type": "function"
        }
    ],
    "bytecode": "0x60806040523480156200001157600080fd5b5060405162005f8438038062005f84833981016040819052620000349162000077565b600580546001600160a01b039092166001600160a01b031992831617905560008054909116739326bfa02add2366b30bacb125260af641031331179055620000a7565b60006020828403121562000089578081fd5b81516001600160a01b0381168114620000a0578182fd5b9392505050565b615ecd80620000b76000396000f3fe6080604052600436106100ef5760003560e01c80630e50cee5146100f45780632abfab4d1461012c57806332536a5314610150578063365b98b2146101655780633776eac61461019f5780633f27607d146101c157806343ae959c146101fb57806351c7bd4b14610211578063568fefbf146102315780635fc2a547146102af5780636ba13a82146102dc5780637b3e5e7b146102f2578063873138f314610308578063bb27e0ce1461032a578063c33743151461033f578063c69f34a314610361578063c6e251a914610381578063cac83cb114610394578063d8251a14146103b4578063ef07a81f146103c7575b600080fd5b34801561010057600080fd5b5061011461010f36600461531f565b6103f4565b60405161012393929190615a5d565b60405180910390f35b34801561013857600080fd5b5061014260075481565b604051908152602001610123565b61016361015e366004615502565b6104a3565b005b34801561017157600080fd5b506101856101803660046154c9565b6108e6565b6040516101239e9d9c9b9a99989796959493929190615bd9565b3480156101ab57600080fd5b506101b4610f36565b604051610123919061593b565b3480156101cd57600080fd5b506101e16101dc3660046154c9565b611a56565b6040516101239e9d9c9b9a99989796959493929190615b08565b34801561020757600080fd5b5061014260065481565b34801561021d57600080fd5b5061016361022c3660046154c9565b612459565b34801561023d57600080fd5b5061028661024c3660046154e1565b600260208181526000938452604080852090915291835291208054600182015492820154600390920154909291906001600160a01b031684565b604080519485526020850193909352918301526001600160a01b03166060820152608001610123565b3480156102bb57600080fd5b506102cf6102ca3660046154c9565b6127ea565b604051610123919061599c565b3480156102e857600080fd5b5061014260085481565b3480156102fe57600080fd5b5061014260095481565b34801561031457600080fd5b5061031d612952565b6040516101239190615aca565b34801561033657600080fd5b50610142612a98565b34801561034b57600080fd5b50610354612b2a565b6040516101239190615a09565b34801561036d57600080fd5b5061016361037c3660046154c9565b613294565b61016361038f36600461533b565b613391565b3480156103a057600080fd5b506101636103af3660046154c9565b613c01565b6101636103c23660046154c9565b613c9c565b3480156103d357600080fd5b506103e76103e23660046154c9565b614297565b6040516101239190615ab7565b6004602052600090815260409020805460018201805460ff909216929161041a90615dfd565b80601f016020809104026020016040519081016040528092919081815260200182805461044690615dfd565b80156104935780601f1061046857610100808354040283529160200191610493565b820191906000526020600020905b81548152906001019060200180831161047657829003601f168201915b5050505050908060020154905083565b6000831180156104b557506007548311155b6104da5760405162461bcd60e51b81526004016104d190615a88565b60405180910390fd5b6000838152600160205260409020601a810154610100900460ff16156104ff57600080fd5b601d81015460ff61010090910416151560011461051b57600080fd5b601c810154421161052b57600080fd5b6005546040516001600160a01b039091169081903480156108fc02916000818181858888f19350505050158015610566573d6000803e3d6000fd5b50601b8201849055601c8201839055601a8201805461ff0019166101001790556000858152600160208190526040909120835481558184015491810180546001600160a01b03199081166001600160a01b03948516179091556002808601805491840191825560038088015490850180549094169516949094179091556004808601805487959392850191906105fb90615dfd565b610606929190614d77565b50600382018160030190805461061b90615dfd565b610626929190614d77565b50600482018160040190805461063b90615dfd565b610646929190614d77565b50600582018160050190805461065b90615dfd565b610666929190614d77565b50600682018160060190805461067b90615dfd565b610686929190614d77565b50600782810154908201805460ff191660ff909216151591909117905560088083018054918301916106b790615dfd565b6106c2929190614d77565b5060098201816009019080546106d790615dfd565b6106e2929190614d77565b50600a820181600a019080546106f790615dfd565b610702929190614d77565b50600b820181600b0190805461071790615dfd565b610722929190614d77565b50600c820181600c0190805461073790615dfd565b610742929190614d77565b50600d820181600d0190805461075790615dfd565b610762929190614d77565b505050601082015481601001556011820154816011015560128201548160120155601382015481601301556014820154816014015560158201816015019080546107ab90615dfd565b6107b6929190614d77565b5060168201816016019080546107cb90615dfd565b6107d6929190614d77565b5060178201816017019080546107eb90615dfd565b6107f6929190614d77565b50601882018160180190805461080b90615dfd565b610816929190614d77565b50601982018160190190805461082b90615dfd565b610836929190614d77565b50601a8281018054918301805460ff938416151560ff198083168217845593546101009081900486161515810261ff001992831661ffff199485161717909355601b8088015490870155601c8088015490870155601d808801805491880180549288161515838816811782559154869004881615159095029216921691909117179055601e8085015490840155601f93840154939092018054939091161515929091169190911790555050505050565b60036020526000908152604090208054600182015460028301805492936001600160a01b039092169261091890615dfd565b80601f016020809104026020016040519081016040528092919081815260200182805461094490615dfd565b80156109915780601f1061096657610100808354040283529160200191610991565b820191906000526020600020905b81548152906001019060200180831161097457829003601f168201915b5050505050908060030180546109a690615dfd565b80601f01602080910402602001604051908101604052809291908181526020018280546109d290615dfd565b8015610a1f5780601f106109f457610100808354040283529160200191610a1f565b820191906000526020600020905b815481529060010190602001808311610a0257829003601f168201915b505050505090806004018054610a3490615dfd565b80601f0160208091040260200160405190810160405280929190818152602001828054610a6090615dfd565b8015610aad5780601f10610a8257610100808354040283529160200191610aad565b820191906000526020600020905b815481529060010190602001808311610a9057829003601f168201915b505050505090806005018054610ac290615dfd565b80601f0160208091040260200160405190810160405280929190818152602001828054610aee90615dfd565b8015610b3b5780601f10610b1057610100808354040283529160200191610b3b565b820191906000526020600020905b815481529060010190602001808311610b1e57829003601f168201915b505050505090806006018054610b5090615dfd565b80601f0160208091040260200160405190810160405280929190818152602001828054610b7c90615dfd565b8015610bc95780601f10610b9e57610100808354040283529160200191610bc9565b820191906000526020600020905b815481529060010190602001808311610bac57829003601f168201915b5050506007840154600885018054949560ff909216949193509150610bed90615dfd565b80601f0160208091040260200160405190810160405280929190818152602001828054610c1990615dfd565b8015610c665780601f10610c3b57610100808354040283529160200191610c66565b820191906000526020600020905b815481529060010190602001808311610c4957829003601f168201915b505050505090806009018054610c7b90615dfd565b80601f0160208091040260200160405190810160405280929190818152602001828054610ca790615dfd565b8015610cf45780601f10610cc957610100808354040283529160200191610cf4565b820191906000526020600020905b815481529060010190602001808311610cd757829003601f168201915b50505050509080600a018054610d0990615dfd565b80601f0160208091040260200160405190810160405280929190818152602001828054610d3590615dfd565b8015610d825780601f10610d5757610100808354040283529160200191610d82565b820191906000526020600020905b815481529060010190602001808311610d6557829003601f168201915b50505050509080600b018054610d9790615dfd565b80601f0160208091040260200160405190810160405280929190818152602001828054610dc390615dfd565b8015610e105780601f10610de557610100808354040283529160200191610e10565b820191906000526020600020905b815481529060010190602001808311610df357829003601f168201915b50505050509080600c018054610e2590615dfd565b80601f0160208091040260200160405190810160405280929190818152602001828054610e5190615dfd565b8015610e9e5780601f10610e7357610100808354040283529160200191610e9e565b820191906000526020600020905b815481529060010190602001808311610e8157829003601f168201915b50505050509080600d018054610eb390615dfd565b80601f0160208091040260200160405190810160405280929190818152602001828054610edf90615dfd565b8015610f2c5780601f10610f0157610100808354040283529160200191610f2c565b820191906000526020600020905b815481529060010190602001808311610f0f57829003601f168201915b505050505090508e565b600754606090600080826001600160401b03811115610f6557634e487b7160e01b600052604160045260246000fd5b604051908082528060200260200182016040528015610f9e57816020015b610f8b614dfe565b815260200190600190039081610f835790505b50905060005b83811015611a4e576000610fb9826001615dae565b60008181526001602081815260409283902083516101c0808201865282548252938201546001600160a01b039081168285015285519485018652600283018054865260038401549091169385019390935260048201805496975091959094869486820194909390929184019161102e90615dfd565b80601f016020809104026020016040519081016040528092919081815260200182805461105a90615dfd565b80156110a75780601f1061107c576101008083540402835291602001916110a7565b820191906000526020600020905b81548152906001019060200180831161108a57829003601f168201915b505050505081526020016003820180546110c090615dfd565b80601f01602080910402602001604051908101604052809291908181526020018280546110ec90615dfd565b80156111395780601f1061110e57610100808354040283529160200191611139565b820191906000526020600020905b81548152906001019060200180831161111c57829003601f168201915b5050505050815260200160048201805461115290615dfd565b80601f016020809104026020016040519081016040528092919081815260200182805461117e90615dfd565b80156111cb5780601f106111a0576101008083540402835291602001916111cb565b820191906000526020600020905b8154815290600101906020018083116111ae57829003601f168201915b505050505081526020016005820180546111e490615dfd565b80601f016020809104026020016040519081016040528092919081815260200182805461121090615dfd565b801561125d5780601f106112325761010080835404028352916020019161125d565b820191906000526020600020905b81548152906001019060200180831161124057829003601f168201915b5050505050815260200160068201805461127690615dfd565b80601f01602080910402602001604051908101604052809291908181526020018280546112a290615dfd565b80156112ef5780601f106112c4576101008083540402835291602001916112ef565b820191906000526020600020905b8154815290600101906020018083116112d257829003601f168201915b5050509183525050600782015460ff161515602082015260088201805460409092019161131b90615dfd565b80601f016020809104026020016040519081016040528092919081815260200182805461134790615dfd565b80156113945780601f1061136957610100808354040283529160200191611394565b820191906000526020600020905b81548152906001019060200180831161137757829003601f168201915b505050505081526020016009820180546113ad90615dfd565b80601f01602080910402602001604051908101604052809291908181526020018280546113d990615dfd565b80156114265780601f106113fb57610100808354040283529160200191611426565b820191906000526020600020905b81548152906001019060200180831161140957829003601f168201915b50505050508152602001600a8201805461143f90615dfd565b80601f016020809104026020016040519081016040528092919081815260200182805461146b90615dfd565b80156114b85780601f1061148d576101008083540402835291602001916114b8565b820191906000526020600020905b81548152906001019060200180831161149b57829003601f168201915b50505050508152602001600b820180546114d190615dfd565b80601f01602080910402602001604051908101604052809291908181526020018280546114fd90615dfd565b801561154a5780601f1061151f5761010080835404028352916020019161154a565b820191906000526020600020905b81548152906001019060200180831161152d57829003601f168201915b50505050508152602001600c8201805461156390615dfd565b80601f016020809104026020016040519081016040528092919081815260200182805461158f90615dfd565b80156115dc5780601f106115b1576101008083540402835291602001916115dc565b820191906000526020600020905b8154815290600101906020018083116115bf57829003601f168201915b50505050508152602001600d820180546115f590615dfd565b80601f016020809104026020016040519081016040528092919081815260200182805461162190615dfd565b801561166e5780601f106116435761010080835404028352916020019161166e565b820191906000526020600020905b81548152906001019060200180831161165157829003601f168201915b505050505081525050815260200160108201548152602001601182015481526020016012820154815260200160138201548152602001601482015481526020016015820180546116bd90615dfd565b80601f01602080910402602001604051908101604052809291908181526020018280546116e990615dfd565b80156117365780601f1061170b57610100808354040283529160200191611736565b820191906000526020600020905b81548152906001019060200180831161171957829003601f168201915b5050505050815260200160168201805461174f90615dfd565b80601f016020809104026020016040519081016040528092919081815260200182805461177b90615dfd565b80156117c85780601f1061179d576101008083540402835291602001916117c8565b820191906000526020600020905b8154815290600101906020018083116117ab57829003601f168201915b505050505081526020016017820180546117e190615dfd565b80601f016020809104026020016040519081016040528092919081815260200182805461180d90615dfd565b801561185a5780601f1061182f5761010080835404028352916020019161185a565b820191906000526020600020905b81548152906001019060200180831161183d57829003601f168201915b5050505050815260200160188201805461187390615dfd565b80601f016020809104026020016040519081016040528092919081815260200182805461189f90615dfd565b80156118ec5780601f106118c1576101008083540402835291602001916118ec565b820191906000526020600020905b8154815290600101906020018083116118cf57829003601f168201915b5050505050815260200160198201805461190590615dfd565b80601f016020809104026020016040519081016040528092919081815260200182805461193190615dfd565b801561197e5780601f106119535761010080835404028352916020019161197e565b820191906000526020600020905b81548152906001019060200180831161196157829003601f168201915b5050509183525050604080516101008082018352601a85015460ff808216151584529082900481161515602084810191909152601b87015494840194909452601c8601546060840152601d86015480821615156080850152919091048116151560a0830152601e85015460c0830152601f90940154909316151560e084015201528451859087908110611a2157634e487b7160e01b600052603260045260246000fd5b6020908102919091010152611a37600186615dae565b945050508080611a4690615e38565b915050610fa4565b509392505050565b60016020818152600092835260409283902080549281015484516101c081018652600283018054825260038401546001600160a01b0390811695830195909552600484018054969795909316959394919390929184019190611ab790615dfd565b80601f0160208091040260200160405190810160405280929190818152602001828054611ae390615dfd565b8015611b305780601f10611b0557610100808354040283529160200191611b30565b820191906000526020600020905b815481529060010190602001808311611b1357829003601f168201915b50505050508152602001600382018054611b4990615dfd565b80601f0160208091040260200160405190810160405280929190818152602001828054611b7590615dfd565b8015611bc25780601f10611b9757610100808354040283529160200191611bc2565b820191906000526020600020905b815481529060010190602001808311611ba557829003601f168201915b50505050508152602001600482018054611bdb90615dfd565b80601f0160208091040260200160405190810160405280929190818152602001828054611c0790615dfd565b8015611c545780601f10611c2957610100808354040283529160200191611c54565b820191906000526020600020905b815481529060010190602001808311611c3757829003601f168201915b50505050508152602001600582018054611c6d90615dfd565b80601f0160208091040260200160405190810160405280929190818152602001828054611c9990615dfd565b8015611ce65780601f10611cbb57610100808354040283529160200191611ce6565b820191906000526020600020905b815481529060010190602001808311611cc957829003601f168201915b50505050508152602001600682018054611cff90615dfd565b80601f0160208091040260200160405190810160405280929190818152602001828054611d2b90615dfd565b8015611d785780601f10611d4d57610100808354040283529160200191611d78565b820191906000526020600020905b815481529060010190602001808311611d5b57829003601f168201915b5050509183525050600782015460ff1615156020820152600882018054604090920191611da490615dfd565b80601f0160208091040260200160405190810160405280929190818152602001828054611dd090615dfd565b8015611e1d5780601f10611df257610100808354040283529160200191611e1d565b820191906000526020600020905b815481529060010190602001808311611e0057829003601f168201915b50505050508152602001600982018054611e3690615dfd565b80601f0160208091040260200160405190810160405280929190818152602001828054611e6290615dfd565b8015611eaf5780601f10611e8457610100808354040283529160200191611eaf565b820191906000526020600020905b815481529060010190602001808311611e9257829003601f168201915b50505050508152602001600a82018054611ec890615dfd565b80601f0160208091040260200160405190810160405280929190818152602001828054611ef490615dfd565b8015611f415780601f10611f1657610100808354040283529160200191611f41565b820191906000526020600020905b815481529060010190602001808311611f2457829003601f168201915b50505050508152602001600b82018054611f5a90615dfd565b80601f0160208091040260200160405190810160405280929190818152602001828054611f8690615dfd565b8015611fd35780601f10611fa857610100808354040283529160200191611fd3565b820191906000526020600020905b815481529060010190602001808311611fb657829003601f168201915b50505050508152602001600c82018054611fec90615dfd565b80601f016020809104026020016040519081016040528092919081815260200182805461201890615dfd565b80156120655780601f1061203a57610100808354040283529160200191612065565b820191906000526020600020905b81548152906001019060200180831161204857829003601f168201915b50505050508152602001600d8201805461207e90615dfd565b80601f01602080910402602001604051908101604052809291908181526020018280546120aa90615dfd565b80156120f75780601f106120cc576101008083540402835291602001916120f7565b820191906000526020600020905b8154815290600101906020018083116120da57829003601f168201915b5050505050815250509080601001549080601101549080601201549080601301549080601401549080601501805461212e90615dfd565b80601f016020809104026020016040519081016040528092919081815260200182805461215a90615dfd565b80156121a75780601f1061217c576101008083540402835291602001916121a7565b820191906000526020600020905b81548152906001019060200180831161218a57829003601f168201915b5050505050908060160180546121bc90615dfd565b80601f01602080910402602001604051908101604052809291908181526020018280546121e890615dfd565b80156122355780601f1061220a57610100808354040283529160200191612235565b820191906000526020600020905b81548152906001019060200180831161221857829003601f168201915b50505050509080601701805461224a90615dfd565b80601f016020809104026020016040519081016040528092919081815260200182805461227690615dfd565b80156122c35780601f10612298576101008083540402835291602001916122c3565b820191906000526020600020905b8154815290600101906020018083116122a657829003601f168201915b5050505050908060180180546122d890615dfd565b80601f016020809104026020016040519081016040528092919081815260200182805461230490615dfd565b80156123515780601f1061232657610100808354040283529160200191612351565b820191906000526020600020905b81548152906001019060200180831161233457829003601f168201915b50505050509080601901805461236690615dfd565b80601f016020809104026020016040519081016040528092919081815260200182805461239290615dfd565b80156123df5780601f106123b4576101008083540402835291602001916123df565b820191906000526020600020905b8154815290600101906020018083116123c257829003601f168201915b5050604080516101008082018352601a88015460ff8082161515845290829004811615156020840152601b89015493830193909352601c8801546060830152601d88015480841615156080840152048216151560a0820152601e87015460c0820152601f9096015416151560e086015250919291508f9050565b60008111801561246b57506007548111155b6124875760405162461bcd60e51b81526004016104d190615a88565b6000818152600160208190526040909120601d8101805461ffff19169055601f8101805460ff19168317905590810180546001600160a01b03198082166001600160a01b0392831617909255600383018054928316929091169190911790556004810180548291829160028301918291819061250290615dfd565b61250d929190614d77565b50600382018160030190805461252290615dfd565b61252d929190614d77565b50600482018160040190805461254290615dfd565b61254d929190614d77565b50600582018160050190805461256290615dfd565b61256d929190614d77565b50600682018160060190805461258290615dfd565b61258d929190614d77565b50600782810154908201805460ff191660ff909216151591909117905560088083018054918301916125be90615dfd565b6125c9929190614d77565b5060098201816009019080546125de90615dfd565b6125e9929190614d77565b50600a820181600a019080546125fe90615dfd565b612609929190614d77565b50600b820181600b0190805461261e90615dfd565b612629929190614d77565b50600c820181600c0190805461263e90615dfd565b612649929190614d77565b50600d820181600d0190805461265e90615dfd565b612669929190614d77565b505050601082015481601001556011820154816011015560128201548160120155601382015481601301556014820154816014015560158201816015019080546126b290615dfd565b6126bd929190614d77565b5060168201816016019080546126d290615dfd565b6126dd929190614d77565b5060178201816017019080546126f290615dfd565b6126fd929190614d77565b50601882018160180190805461271290615dfd565b61271d929190614d77565b50601982018160190190805461273290615dfd565b61273d929190614d77565b50601a8281018054918301805460ff938416151560ff198083168217845593546101009081900486161515810261ff001992831661ffff199485161717909355601b8088015490870155601c8088015490870155601d808801805491880180549288161515838816811782559154869004881615159095029216921691909117179055601e8085015490840155601f93840154939092018054939091161515929091169190911790555050565b60008181526001602052604081206010015460609180826001600160401b0381111561282657634e487b7160e01b600052604160045260246000fd5b60405190808252806020026020018201604052801561288b57816020015b612878604051806080016040528060008152602001600081526020016000815260200160006001600160a01b031681525090565b8152602001906001900390816128445790505b50905060005b838110156129495760006128a6826001615dae565b6000888152600260208181526040808420858552825292839020835160808101855281548152600182015492810192909252918201549281019290925260038101546001600160a01b0316606083015285519293509185908790811061291c57634e487b7160e01b600052603260045260246000fd5b6020908102919091010152612932600186615dae565b94505050808061294190615e38565b915050612891565b50949350505050565b612978604051806060016040528060001515815260200160608152602001600081525090565b3360009081526004602052604090205460ff16151560011415612a5f5733600090815260046020908152604091829020825160608101909352805460ff161515835260018101805491928401916129ce90615dfd565b80601f01602080910402602001604051908101604052809291908181526020018280546129fa90615dfd565b8015612a475780601f10612a1c57610100808354040283529160200191612a47565b820191906000526020600020905b815481529060010190602001808311612a2a57829003601f168201915b50505050508152602001600282015481525050905090565b33600090815260046020908152604091829020825160608101909352805460ff161515835260018101805491928401916129ce90615dfd565b6000805460408051633fabe5a360e21b8152905183926001600160a01b03169163feaf968c9160048083019260a0929190829003018186803b158015612add57600080fd5b505afa158015612af1573d6000803e3d6000fd5b505050506040513d601f19601f82011682018060405250810190612b15919061552d565b505050915050612b2481614d02565b91505090565b600854606090600080826001600160401b03811115612b5957634e487b7160e01b600052604160045260246000fd5b604051908082528060200260200182016040528015612b9257816020015b612b7f614ec0565b815260200190600190039081612b775790505b50905060005b83811015611a4e576000612bad826001615dae565b60008181526003602090815260409182902082516101c0810184528154815260018201546001600160a01b0316928101929092526002810180549495509093919284929084019190612bfe90615dfd565b80601f0160208091040260200160405190810160405280929190818152602001828054612c2a90615dfd565b8015612c775780601f10612c4c57610100808354040283529160200191612c77565b820191906000526020600020905b815481529060010190602001808311612c5a57829003601f168201915b50505050508152602001600382018054612c9090615dfd565b80601f0160208091040260200160405190810160405280929190818152602001828054612cbc90615dfd565b8015612d095780601f10612cde57610100808354040283529160200191612d09565b820191906000526020600020905b815481529060010190602001808311612cec57829003601f168201915b50505050508152602001600482018054612d2290615dfd565b80601f0160208091040260200160405190810160405280929190818152602001828054612d4e90615dfd565b8015612d9b5780601f10612d7057610100808354040283529160200191612d9b565b820191906000526020600020905b815481529060010190602001808311612d7e57829003601f168201915b50505050508152602001600582018054612db490615dfd565b80601f0160208091040260200160405190810160405280929190818152602001828054612de090615dfd565b8015612e2d5780601f10612e0257610100808354040283529160200191612e2d565b820191906000526020600020905b815481529060010190602001808311612e1057829003601f168201915b50505050508152602001600682018054612e4690615dfd565b80601f0160208091040260200160405190810160405280929190818152602001828054612e7290615dfd565b8015612ebf5780601f10612e9457610100808354040283529160200191612ebf565b820191906000526020600020905b815481529060010190602001808311612ea257829003601f168201915b5050509183525050600782015460ff1615156020820152600882018054604090920191612eeb90615dfd565b80601f0160208091040260200160405190810160405280929190818152602001828054612f1790615dfd565b8015612f645780601f10612f3957610100808354040283529160200191612f64565b820191906000526020600020905b815481529060010190602001808311612f4757829003601f168201915b50505050508152602001600982018054612f7d90615dfd565b80601f0160208091040260200160405190810160405280929190818152602001828054612fa990615dfd565b8015612ff65780601f10612fcb57610100808354040283529160200191612ff6565b820191906000526020600020905b815481529060010190602001808311612fd957829003601f168201915b50505050508152602001600a8201805461300f90615dfd565b80601f016020809104026020016040519081016040528092919081815260200182805461303b90615dfd565b80156130885780601f1061305d57610100808354040283529160200191613088565b820191906000526020600020905b81548152906001019060200180831161306b57829003601f168201915b50505050508152602001600b820180546130a190615dfd565b80601f01602080910402602001604051908101604052809291908181526020018280546130cd90615dfd565b801561311a5780601f106130ef5761010080835404028352916020019161311a565b820191906000526020600020905b8154815290600101906020018083116130fd57829003601f168201915b50505050508152602001600c8201805461313390615dfd565b80601f016020809104026020016040519081016040528092919081815260200182805461315f90615dfd565b80156131ac5780601f10613181576101008083540402835291602001916131ac565b820191906000526020600020905b81548152906001019060200180831161318f57829003601f168201915b50505050508152602001600d820180546131c590615dfd565b80601f01602080910402602001604051908101604052809291908181526020018280546131f190615dfd565b801561323e5780601f106132135761010080835404028352916020019161323e565b820191906000526020600020905b81548152906001019060200180831161322157829003601f168201915b50505050508152505084868151811061326757634e487b7160e01b600052603260045260246000fd5b602090810291909101015261327d600186615dae565b94505050808061328c90615e38565b915050612b98565b6000811180156132a657506007548111155b6132c25760405162461bcd60e51b81526004016104d190615a88565b6000818152600160205260409020601d810154610100900460ff16156132e757600080fd5b601d81015460ff16156132f957600080fd5b601d8101805461ffff1916610101179055601f8101805460ff1916905542601e8201556000828152600160208190526040909120825481558183015491810180546001600160a01b039384166001600160a01b03199182161790915560028085018054918401918255600380870154908501805491909616931692909217909355600480850180548695928501919061250290615dfd565b3361339b57600080fd5b600780549060006133ab83615e38565b9091555050600754600081815260016020818152604080842094855591840180546001600160a01b0319163390811790915583526004905290205460ff16613859576008546133fb906001615dae565b600881905560028201556003810180546001600160a01b0319163317905560408084015101518051613437916004840191602090910190614f3a565b506040830151606001518051613457916005840191602090910190614f3a565b506040830151608001518051613477916006840191602090910190614f3a565b50604083015160a001518051613497916007840191602090910190614f3a565b50604083015160c0015180516134b7916008840191602090910190614f3a565b5060098101805460ff191660011790556040830151610100015180516134e791600a840191602090910190614f3a565b5060408301516101200151805161350891600b840191602090910190614f3a565b5060408301516101400151805161352991600c840191602090910190614f3a565b5060408301516101600151805161354a91600d840191602090910190614f3a565b5060408301516101800151805161356b91600e840191602090910190614f3a565b5060408301516101a00151805161358c91600f840191602090910190614f3a565b50600880546000818152600360209081526040808320938455600190930180546001600160a01b03191633179055868301518301519354825291902082516135de936002909201929190910190614f3a565b506040808401516060015160085460009081526003602081815293909120825161360e9491909201920190614f3a565b508260400151608001516003600060085481526020019081526020016000206004019080519060200190613643929190614f3a565b50826040015160a001516003600060085481526020019081526020016000206005019080519060200190613678929190614f3a565b50826040015160c0015160036000600854815260200190815260200160002060060190805190602001906136ad929190614f3a565b50600880546000908152600360209081526040808320600701805460ff1916600117905586810151610100015184548452922082516136f494919091019290910190614f3a565b5082604001516101200151600360006008548152602001908152602001600020600901908051906020019061372a929190614f3a565b5082604001516101400151600360006008548152602001908152602001600020600a019080519060200190613760929190614f3a565b5082604001516101600151600360006008548152602001908152602001600020600b019080519060200190613796929190614f3a565b5082604001516101800151600360006008548152602001908152602001600020600c0190805190602001906137cc929190614f3a565b5082604001516101a00151600360006008548152602001908152602001600020600d019080519060200190613802929190614f3a565b5033600090815260046020908152604091829020805460ff1916600190811782558684015190930151805161383d9492909201920190614f3a565b5060085433600090815260046020526040902060020155613a76565b6000828152600360208190526040909120805460028085019190915591830180546001600160a01b0319163317905501805460048301919061389a90615dfd565b6138a5929190614d77565b5060008281526003602081905260409091200180546005830191906138c990615dfd565b6138d4929190614d77565b50600082815260036020526040902060040180546006830191906138f790615dfd565b613902929190614d77565b506000828152600360205260409020600501805460078301919061392590615dfd565b613930929190614d77565b506000828152600360205260409020600601805460088301919061395390615dfd565b61395e929190614d77565b5060098101805460ff1916600117905560008281526003602052604090206008018054600a8301919061399090615dfd565b61399b929190614d77565b5060008281526003602052604090206009018054600b830191906139be90615dfd565b6139c9929190614d77565b506000828152600360205260409020600a018054600c830191906139ec90615dfd565b6139f7929190614d77565b506000828152600360205260409020600b018054600d83019190613a1a90615dfd565b613a25929190614d77565b506000828152600360205260409020600c018054600e83019190613a4890615dfd565b613a53929190614d77565b5060408301516101a001518051613a7491600f840191602090910190614f3a565b505b600060118201819055601082015542601282015560c0830151601382015560e083015160148201556101008301518051613aba916015840191602090910190614f3a565b506101208301518051613ad7916016840191602090910190614f3a565b506101408301518051613af4916017840191602090910190614f3a565b506101008301518051613b11916015840191602090910190614f3a565b506101608301518051613b2e916018840191602090910190614f3a565b506101808301518051613b4b916019840191602090910190614f3a565b50601a8101805461ffff19908116909155601d820180549091169055601f8101805460ff191690556000601e8201819055601b8201819055601c8201556007546006546009546012840154601385015460148601546040517f7c8a17aaa539b5bb8a8ea1700d5c6e2008e7baa2a6f82e7cd29308dbba896d7d96613bf4969095339591949093919290919060158b019060168c019060178d019060188e019060198f0190615ceb565b60405180910390a1505050565b600081118015613c1357506007548111155b613c2f5760405162461bcd60e51b81526004016104d190615a88565b6000818152600160208190526040909120601a8101805461ff001916905590810180546001600160a01b03198082166001600160a01b0392831617909255600383018054928316929091169190911790556004810180548291829160028301918291819061250290615dfd565b600081118015613cae57506007548111155b613cb757600080fd5b60008181526001602052604090206014810154601182015410613ce457601a8101805460ff191660011790555b60018101546001600160a01b03166011600a6000613d028383614d58565b905060646000613d128284614d58565b90506000613d203483614d58565b90506001600160a01b0387166108fc613d393484614d6b565b6040518115909202916000818181858888f19350505050158015613d61573d6000803e3d6000fd5b506005546040516001600160a01b0390911690819083156108fc029084906000818181858888f19350505050158015613d9e573d6000803e3d6000fd5b5034600954613dad9190615dae565b6009556011890154613dc0903490615dae565b60118a01556010890154613dd5906001615dae565b60108a015560068054906000613dea83615e38565b91905055508860100154600260008b60000154815260200190815260200160002060008b6010015481526020019081526020016000206000018190555034600260008b60000154815260200190815260200160002060008b6010015481526020019081526020016000206001018190555042600260008b60000154815260200190815260200160002060008b6010015481526020019081526020016000206002018190555033600260008b60000154815260200190815260200160002060008b60100154815260200190815260200160002060030160006101000a8154816001600160a01b0302191690836001600160a01b0316021790555088600160008c8152602001908152602001600020600082015481600001556001820160009054906101000a90046001600160a01b03168160010160006101000a8154816001600160a01b0302191690836001600160a01b031602179055506002820181600201600082015481600001556001820160009054906101000a90046001600160a01b03168160010160006101000a8154816001600160a01b0302191690836001600160a01b031602179055506002820181600201908054613fa790615dfd565b613fb2929190614d77565b506003820181600301908054613fc790615dfd565b613fd2929190614d77565b506004820181600401908054613fe790615dfd565b613ff2929190614d77565b50600582018160050190805461400790615dfd565b614012929190614d77565b50600682018160060190805461402790615dfd565b614032929190614d77565b50600782810154908201805460ff191660ff9092161515919091179055600880830180549183019161406390615dfd565b61406e929190614d77565b50600982018160090190805461408390615dfd565b61408e929190614d77565b50600a820181600a019080546140a390615dfd565b6140ae929190614d77565b50600b820181600b019080546140c390615dfd565b6140ce929190614d77565b50600c820181600c019080546140e390615dfd565b6140ee929190614d77565b50600d820181600d0190805461410390615dfd565b61410e929190614d77565b5050506010820154816010015560118201548160110155601282015481601201556013820154816013015560148201548160140155601582018160150190805461415790615dfd565b614162929190614d77565b50601682018160160190805461417790615dfd565b614182929190614d77565b50601782018160170190805461419790615dfd565b6141a2929190614d77565b5060188201816018019080546141b790615dfd565b6141c2929190614d77565b5060198201816019019080546141d790615dfd565b6141e2929190614d77565b50601a8281018054918301805460ff938416151560ff198083168217845593546101009081900486161515810261ff001992831661ffff199485161717909355601b8088015490870155601c8088015490870155601d808801805491880180549288161515838816811782559154869004881615159095029216921691909117179055601e8085015490840155601f938401549390920180549390911615159290911691909117905550505050505050505050565b61429f614dfe565b600082815260016020526040902054821415614cfd5760008281526001602081815260409283902083516101c0808201865282548252938201546001600160a01b0390811682850152855194850186526002830180548652600384015490911693850193909352600482018054919592948684019490939092908401919061432690615dfd565b80601f016020809104026020016040519081016040528092919081815260200182805461435290615dfd565b801561439f5780601f106143745761010080835404028352916020019161439f565b820191906000526020600020905b81548152906001019060200180831161438257829003601f168201915b505050505081526020016003820180546143b890615dfd565b80601f01602080910402602001604051908101604052809291908181526020018280546143e490615dfd565b80156144315780601f1061440657610100808354040283529160200191614431565b820191906000526020600020905b81548152906001019060200180831161441457829003601f168201915b5050505050815260200160048201805461444a90615dfd565b80601f016020809104026020016040519081016040528092919081815260200182805461447690615dfd565b80156144c35780601f10614498576101008083540402835291602001916144c3565b820191906000526020600020905b8154815290600101906020018083116144a657829003601f168201915b505050505081526020016005820180546144dc90615dfd565b80601f016020809104026020016040519081016040528092919081815260200182805461450890615dfd565b80156145555780601f1061452a57610100808354040283529160200191614555565b820191906000526020600020905b81548152906001019060200180831161453857829003601f168201915b5050505050815260200160068201805461456e90615dfd565b80601f016020809104026020016040519081016040528092919081815260200182805461459a90615dfd565b80156145e75780601f106145bc576101008083540402835291602001916145e7565b820191906000526020600020905b8154815290600101906020018083116145ca57829003601f168201915b5050509183525050600782015460ff161515602082015260088201805460409092019161461390615dfd565b80601f016020809104026020016040519081016040528092919081815260200182805461463f90615dfd565b801561468c5780601f106146615761010080835404028352916020019161468c565b820191906000526020600020905b81548152906001019060200180831161466f57829003601f168201915b505050505081526020016009820180546146a590615dfd565b80601f01602080910402602001604051908101604052809291908181526020018280546146d190615dfd565b801561471e5780601f106146f35761010080835404028352916020019161471e565b820191906000526020600020905b81548152906001019060200180831161470157829003601f168201915b50505050508152602001600a8201805461473790615dfd565b80601f016020809104026020016040519081016040528092919081815260200182805461476390615dfd565b80156147b05780601f10614785576101008083540402835291602001916147b0565b820191906000526020600020905b81548152906001019060200180831161479357829003601f168201915b50505050508152602001600b820180546147c990615dfd565b80601f01602080910402602001604051908101604052809291908181526020018280546147f590615dfd565b80156148425780601f1061481757610100808354040283529160200191614842565b820191906000526020600020905b81548152906001019060200180831161482557829003601f168201915b50505050508152602001600c8201805461485b90615dfd565b80601f016020809104026020016040519081016040528092919081815260200182805461488790615dfd565b80156148d45780601f106148a9576101008083540402835291602001916148d4565b820191906000526020600020905b8154815290600101906020018083116148b757829003601f168201915b50505050508152602001600d820180546148ed90615dfd565b80601f016020809104026020016040519081016040528092919081815260200182805461491990615dfd565b80156149665780601f1061493b57610100808354040283529160200191614966565b820191906000526020600020905b81548152906001019060200180831161494957829003601f168201915b505050505081525050815260200160108201548152602001601182015481526020016012820154815260200160138201548152602001601482015481526020016015820180546149b590615dfd565b80601f01602080910402602001604051908101604052809291908181526020018280546149e190615dfd565b8015614a2e5780601f10614a0357610100808354040283529160200191614a2e565b820191906000526020600020905b815481529060010190602001808311614a1157829003601f168201915b50505050508152602001601682018054614a4790615dfd565b80601f0160208091040260200160405190810160405280929190818152602001828054614a7390615dfd565b8015614ac05780601f10614a9557610100808354040283529160200191614ac0565b820191906000526020600020905b815481529060010190602001808311614aa357829003601f168201915b50505050508152602001601782018054614ad990615dfd565b80601f0160208091040260200160405190810160405280929190818152602001828054614b0590615dfd565b8015614b525780601f10614b2757610100808354040283529160200191614b52565b820191906000526020600020905b815481529060010190602001808311614b3557829003601f168201915b50505050508152602001601882018054614b6b90615dfd565b80601f0160208091040260200160405190810160405280929190818152602001828054614b9790615dfd565b8015614be45780601f10614bb957610100808354040283529160200191614be4565b820191906000526020600020905b815481529060010190602001808311614bc757829003601f168201915b50505050508152602001601982018054614bfd90615dfd565b80601f0160208091040260200160405190810160405280929190818152602001828054614c2990615dfd565b8015614c765780601f10614c4b57610100808354040283529160200191614c76565b820191906000526020600020905b815481529060010190602001808311614c5957829003601f168201915b5050509183525050604080516101008082018352601a85015460ff808216151584529082900481161515602084810191909152601b87015494840194909452601c8601546060840152601d86015480821615156080850152919091048116151560a0830152601e85015460c0830152601f90940154909316151560e0840152015292915050565b919050565b600080821215614d545760405162461bcd60e51b815260206004820181905260248201527f53616665436173743a2076616c7565206d75737420626520706f73697469766560448201526064016104d1565b5090565b6000614d648284615dc6565b9392505050565b6000614d648284615de6565b828054614d8390615dfd565b90600052602060002090601f016020900481019282614da55760008555614df2565b82601f10614db65780548555614df2565b82800160010185558215614df257600052602060002091601f016020900482015b82811115614df2578254825591600101919060010190614dd7565b50614d54929150614fae565b604080516101c08101825260008082526020820152908101614e1e614ec0565b815260200160008152602001600081526020016000815260200160008152602001600081526020016060815260200160608152602001606081526020016060815260200160608152602001614ebb6040518061010001604052806000151581526020016000151581526020016000815260200160008152602001600015158152602001600015158152602001600081526020016000151581525090565b905290565b604051806101c001604052806000815260200160006001600160a01b0316815260200160608152602001606081526020016060815260200160608152602001606081526020016000151581526020016060815260200160608152602001606081526020016060815260200160608152602001606081525090565b828054614f4690615dfd565b90600052602060002090601f016020900481019282614f685760008555614df2565b82601f10614f8157805160ff1916838001178555614df2565b82800160010185558215614df2579182015b82811115614df2578251825591602001919060010190614f93565b5b80821115614d545760008155600101614faf565b8035614cfd81615e7f565b80358015158114614cfd57600080fd5b600082601f830112614fee578081fd5b81356001600160401b038082111561500857615008615e69565b604051601f8301601f19908116603f0116810190828211818310171561503057615030615e69565b81604052838152866020858801011115615048578485fd5b8360208701602083013792830160200193909352509392505050565b6000610100808385031215615077578182fd5b604051908101906001600160401b038211818310171561509957615099615e69565b816040528092506150a984614fce565b81526150b760208501614fce565b602082015260408401356040820152606084013560608201526150dc60808501614fce565b60808201526150ed60a08501614fce565b60a082015260c084013560c082015261510860e08501614fce565b60e0820152505092915050565b60006101c08284031215615127578081fd5b61512f615d85565b90508135815261514160208301614fc3565b602082015260408201356001600160401b038082111561516057600080fd5b61516c85838601614fde565b6040840152606084013591508082111561518557600080fd5b61519185838601614fde565b606084015260808401359150808211156151aa57600080fd5b6151b685838601614fde565b608084015260a08401359150808211156151cf57600080fd5b6151db85838601614fde565b60a084015260c08401359150808211156151f457600080fd5b61520085838601614fde565b60c084015261521160e08501614fce565b60e08401526101009150818401358181111561522c57600080fd5b61523886828701614fde565b83850152506101209150818401358181111561525357600080fd5b61525f86828701614fde565b83850152506101409150818401358181111561527a57600080fd5b61528686828701614fde565b8385015250610160915081840135818111156152a157600080fd5b6152ad86828701614fde565b8385015250610180915081840135818111156152c857600080fd5b6152d486828701614fde565b83850152506101a0915081840135818111156152ef57600080fd5b6152fb86828701614fde565b8385015250505092915050565b80516001600160501b0381168114614cfd57600080fd5b600060208284031215615330578081fd5b8135614d6481615e7f565b6000806040838503121561534d578081fd5b82356001600160401b0380821115615363578283fd5b908401906102a08287031215615377578283fd5b61537f615d85565b8235815261538f60208401614fc3565b60208201526040830135828111156153a5578485fd5b6153b188828601615115565b604083015250606083013560608201526080830135608082015260a083013560a082015260c083013560c082015260e083013560e082015261010080840135838111156153fc578586fd5b61540889828701614fde565b8284015250506101208084013583811115615421578586fd5b61542d89828701614fde565b8284015250506101408084013583811115615446578586fd5b61545289828701614fde565b828401525050610160808401358381111561546b578586fd5b61547789828701614fde565b8284015250506101808084013583811115615490578586fd5b61549c89828701614fde565b8284015250506101a091506154b387838501615064565b9181019190915295602094909401359450505050565b6000602082840312156154da578081fd5b5035919050565b600080604083850312156154f3578182fd5b50508035926020909101359150565b600080600060608486031215615516578081fd5b505081359360208301359350604090920135919050565b600080600080600060a08688031215615544578081fd5b61554d86615308565b945060208601519350604086015192506060860151915061557060808701615308565b90509295509295909350565b6001600160a01b03169052565b60008151808452815b818110156155ae57602081850181015186830182015201615592565b818111156155bf5782602083870101525b50601f01601f19169290920160200192915050565b8054600090600181811c90808316806155ee57607f831692505b602080841082141561560e57634e487b7160e01b86526022600452602486fd5b83885260208801828015615629576001811461563a57615665565b60ff19871682528282019750615665565b60008981526020902060005b8781101561565f57815484820152908601908401615646565b83019850505b5050505050505092915050565b60006102a082518452602083015161568d602086018261557c565b5060408301518160408601526156a5828601826157db565b915050606083015160608501526080830151608085015260a083015160a085015260c083015160c085015260e083015160e085015261010080840151858303828701526156f28382615589565b92505050610120808401518583038287015261570e8382615589565b92505050610140808401518583038287015261572a8382615589565b9250505061016080840151858303828701526157468382615589565b9250505061018080840151858303828701526157628382615589565b925050506101a08084015161577982870182615783565b5090949350505050565b805115158252602081015115156020830152604081015160408301526060810151606083015260808101511515608083015260a0810151151560a083015260c081015160c083015260e0810151151560e08301525050565b60006101c08251845260208301516157f6602086018261557c565b50604083015181604086015261580e82860182615589565b915050606083015184820360608601526158288282615589565b915050608083015184820360808601526158428282615589565b91505060a083015184820360a086015261585c8282615589565b91505060c083015184820360c08601526158768282615589565b91505060e083015161588c60e086018215159052565b5061010080840151858303828701526158a58382615589565b9250505061012080840151858303828701526158c18382615589565b9250505061014080840151858303828701526158dd8382615589565b9250505061016080840151858303828701526158f98382615589565b9250505061018080840151858303828701526159158382615589565b925050506101a080840151858303828701526159318382615589565b9695505050505050565b6000602080830181845280855180835260408601915060408160051b8701019250838701855b8281101561598f57603f1988860301845261597d858351615672565b94509285019290850190600101615961565b5092979650505050505050565b602080825282518282018190526000919060409081850190868401855b828110156159fc57815180518552868101518786015285810151868601526060908101516001600160a01b031690850152608090930192908501906001016159b9565b5091979650505050505050565b6000602080830181845280855180835260408601915060408160051b8701019250838701855b8281101561598f57603f19888603018452615a4b8583516157db565b94509285019290850190600101615a2f565b8315158152606060208201526000615a786060830185615589565b9050826040830152949350505050565b602080825260159082015274191bdb985d1a5bdb881a59081b9bdd081d985b1a59605a1b604082015260600190565b602081526000614d646020830184615672565b602081528151151560208201526000602083015160606040840152615af26080840182615589565b9050604084015160608401528091505092915050565b8e8152615b18602082018f61557c565b6102a060408201526000615b306102a083018f6157db565b8d60608401528c60808401528b60a08401528a60c08401528960e0840152828103610100840152615b61818a615589565b9050828103610120840152615b768189615589565b9050828103610140840152615b8b8188615589565b9050828103610160840152615ba08187615589565b9050828103610180840152615bb58186615589565b915050615bc66101a0830184615783565b9f9e505050505050505050505050505050565b8e8152615be9602082018f61557c565b6101c060408201526000615c016101c083018f615589565b8281036060840152615c13818f615589565b90508281036080840152615c27818e615589565b905082810360a0840152615c3b818d615589565b905082810360c0840152615c4f818c615589565b8a151560e08501529050828103610100840152615c6c818a615589565b9050828103610120840152615c818189615589565b9050828103610140840152615c968188615589565b9050828103610160840152615cab8187615589565b9050828103610180840152615cc08186615589565b90508281036101a0840152615cd58185615589565b9150509f9e505050505050505050505050505050565b60006101808e835260018060a01b038e1660208401528c60408401528b60608401528a60808401528960a08401528860c08401528060e0840152615d31818401896155d4565b9050828103610100840152615d4681886155d4565b9050828103610120840152615d5b81876155d4565b9050828103610140840152615d7081866155d4565b9050828103610160840152615bc681856155d4565b6040516101c081016001600160401b0381118282101715615da857615da8615e69565b60405290565b60008219821115615dc157615dc1615e53565b500190565b600082615de157634e487b7160e01b81526012600452602481fd5b500490565b600082821015615df857615df8615e53565b500390565b600181811c90821680615e1157607f821691505b60208210811415615e3257634e487b7160e01b600052602260045260246000fd5b50919050565b6000600019821415615e4c57615e4c615e53565b5060010190565b634e487b7160e01b600052601160045260246000fd5b634e487b7160e01b600052604160045260246000fd5b6001600160a01b0381168114615e9457600080fd5b5056fea2646970667358221220f43809eeedb5a2e3587be32976172c97783cf2489475ae895053ffb7b0fab86c64736f6c63430008040033",
    "linkReferences": {},
    "deployedLinkReferences": {}
}